{
	"erc20_implement/_ERC20.sol": {
		"Weth": {
			"abi": [
				{
					"inputs": [],
					"stateMutability": "nonpayable",
					"type": "constructor"
				},
				{
					"anonymous": false,
					"inputs": [
						{
							"indexed": true,
							"internalType": "address",
							"name": "owner",
							"type": "address"
						},
						{
							"indexed": true,
							"internalType": "address",
							"name": "to",
							"type": "address"
						},
						{
							"indexed": false,
							"internalType": "uint256",
							"name": "amount",
							"type": "uint256"
						}
					],
					"name": "Approval",
					"type": "event"
				},
				{
					"anonymous": false,
					"inputs": [
						{
							"indexed": true,
							"internalType": "address",
							"name": "initiator",
							"type": "address"
						},
						{
							"indexed": false,
							"internalType": "uint256",
							"name": "amount",
							"type": "uint256"
						}
					],
					"name": "Deposit",
					"type": "event"
				},
				{
					"anonymous": false,
					"inputs": [
						{
							"indexed": true,
							"internalType": "address",
							"name": "from",
							"type": "address"
						},
						{
							"indexed": true,
							"internalType": "address",
							"name": "to",
							"type": "address"
						},
						{
							"indexed": false,
							"internalType": "uint256",
							"name": "amount",
							"type": "uint256"
						}
					],
					"name": "Transfer",
					"type": "event"
				},
				{
					"stateMutability": "payable",
					"type": "fallback"
				},
				{
					"inputs": [
						{
							"internalType": "address",
							"name": "owner",
							"type": "address"
						},
						{
							"internalType": "address",
							"name": "spender",
							"type": "address"
						}
					],
					"name": "allowance",
					"outputs": [
						{
							"internalType": "uint256",
							"name": "",
							"type": "uint256"
						}
					],
					"stateMutability": "view",
					"type": "function"
				},
				{
					"inputs": [
						{
							"internalType": "address",
							"name": "spender",
							"type": "address"
						},
						{
							"internalType": "uint256",
							"name": "amount",
							"type": "uint256"
						}
					],
					"name": "approve",
					"outputs": [],
					"stateMutability": "nonpayable",
					"type": "function"
				},
				{
					"inputs": [
						{
							"internalType": "address",
							"name": "account",
							"type": "address"
						}
					],
					"name": "balanceOf",
					"outputs": [
						{
							"internalType": "uint256",
							"name": "",
							"type": "uint256"
						}
					],
					"stateMutability": "view",
					"type": "function"
				},
				{
					"inputs": [
						{
							"internalType": "address",
							"name": "_to",
							"type": "address"
						},
						{
							"internalType": "uint256",
							"name": "amount",
							"type": "uint256"
						}
					],
					"name": "burn",
					"outputs": [],
					"stateMutability": "nonpayable",
					"type": "function"
				},
				{
					"inputs": [],
					"name": "decimals",
					"outputs": [
						{
							"internalType": "uint256",
							"name": "",
							"type": "uint256"
						}
					],
					"stateMutability": "pure",
					"type": "function"
				},
				{
					"inputs": [],
					"name": "deposit",
					"outputs": [],
					"stateMutability": "payable",
					"type": "function"
				},
				{
					"inputs": [
						{
							"internalType": "address",
							"name": "_to",
							"type": "address"
						},
						{
							"internalType": "uint256",
							"name": "amount",
							"type": "uint256"
						}
					],
					"name": "mint",
					"outputs": [],
					"stateMutability": "nonpayable",
					"type": "function"
				},
				{
					"inputs": [],
					"name": "name",
					"outputs": [
						{
							"internalType": "string",
							"name": "",
							"type": "string"
						}
					],
					"stateMutability": "view",
					"type": "function"
				},
				{
					"inputs": [],
					"name": "symbol",
					"outputs": [
						{
							"internalType": "string",
							"name": "",
							"type": "string"
						}
					],
					"stateMutability": "view",
					"type": "function"
				},
				{
					"inputs": [],
					"name": "totalSupply",
					"outputs": [
						{
							"internalType": "uint256",
							"name": "",
							"type": "uint256"
						}
					],
					"stateMutability": "view",
					"type": "function"
				},
				{
					"inputs": [
						{
							"internalType": "address",
							"name": "_to",
							"type": "address"
						},
						{
							"internalType": "uint256",
							"name": "_amount",
							"type": "uint256"
						}
					],
					"name": "transfer",
					"outputs": [],
					"stateMutability": "nonpayable",
					"type": "function"
				},
				{
					"inputs": [
						{
							"internalType": "address",
							"name": "sender",
							"type": "address"
						},
						{
							"internalType": "address",
							"name": "recipient",
							"type": "address"
						},
						{
							"internalType": "uint256",
							"name": "amount",
							"type": "uint256"
						}
					],
					"name": "transferFrom",
					"outputs": [],
					"stateMutability": "nonpayable",
					"type": "function"
				},
				{
					"inputs": [
						{
							"internalType": "uint256",
							"name": "_amount",
							"type": "uint256"
						}
					],
					"name": "withdraw",
					"outputs": [],
					"stateMutability": "nonpayable",
					"type": "function"
				},
				{
					"stateMutability": "payable",
					"type": "receive"
				}
			],
			"devdoc": {
				"kind": "dev",
				"methods": {},
				"version": 1
			},
			"evm": {
				"assembly": "    /* \"erc20_implement/_ERC20.sol\":3793:4284  contract Weth is ERC20 {... */\n  mstore(0x40, 0x80)\n    /* \"erc20_implement/_ERC20.sol\":259:286  string public name = \"Chai\" */\n  mload(0x40)\n  dup1\n  0x40\n  add\n  0x40\n  mstore\n  dup1\n  0x04\n  dup2\n  mstore\n  0x20\n  add\n  0x4368616900000000000000000000000000000000000000000000000000000000\n  dup2\n  mstore\n  pop\n  0x04\n  swap1\n  dup1\n  mload\n  swap1\n  0x20\n  add\n  swap1\n  tag_1\n  swap3\n  swap2\n  swap1\n  tag_2\n  jump\t// in\ntag_1:\n  pop\n    /* \"erc20_implement/_ERC20.sol\":292:320  string public symbol = \"CHA\" */\n  mload(0x40)\n  dup1\n  0x40\n  add\n  0x40\n  mstore\n  dup1\n  0x03\n  dup2\n  mstore\n  0x20\n  add\n  0x4348410000000000000000000000000000000000000000000000000000000000\n  dup2\n  mstore\n  pop\n  0x05\n  swap1\n  dup1\n  mload\n  swap1\n  0x20\n  add\n  swap1\n  tag_3\n  swap3\n  swap2\n  swap1\n  tag_2\n  jump\t// in\ntag_3:\n  pop\n    /* \"erc20_implement/_ERC20.sol\":3822:3847  constructor() ERC20(0) {} */\n  callvalue\n  dup1\n  iszero\n  tag_4\n  jumpi\n  0x00\n  dup1\n  revert\ntag_4:\n  pop\n    /* \"erc20_implement/_ERC20.sol\":3842:3843  0 */\n  0x00\n    /* \"erc20_implement/_ERC20.sol\":378:388  msg.sender */\n  caller\n    /* \"erc20_implement/_ERC20.sol\":366:375  mainOwner */\n  0x00\n  dup1\n    /* \"erc20_implement/_ERC20.sol\":366:388  mainOwner = msg.sender */\n  0x0100\n  exp\n  dup2\n  sload\n  dup2\n  0xffffffffffffffffffffffffffffffffffffffff\n  mul\n  not\n  and\n  swap1\n  dup4\n  0xffffffffffffffffffffffffffffffffffffffff\n  and\n  mul\n  or\n  swap1\n  sstore\n  pop\n    /* \"erc20_implement/_ERC20.sol\":398:424  mint(mainOwner,initSupply) */\n  tag_8\n    /* \"erc20_implement/_ERC20.sol\":403:412  mainOwner */\n  0x00\n  dup1\n  sload\n  swap1\n  0x0100\n  exp\n  swap1\n  div\n  0xffffffffffffffffffffffffffffffffffffffff\n  and\n    /* \"erc20_implement/_ERC20.sol\":413:423  initSupply */\n  dup3\n    /* \"erc20_implement/_ERC20.sol\":398:402  mint */\n  shl(0x20, tag_9)\n    /* \"erc20_implement/_ERC20.sol\":398:424  mint(mainOwner,initSupply) */\n  0x20\n  shr\n  jump\t// in\ntag_8:\n    /* \"erc20_implement/_ERC20.sol\":327:431  constructor(uint initSupply) {... */\n  pop\n    /* \"erc20_implement/_ERC20.sol\":3793:4284  contract Weth is ERC20 {... */\n  jump(tag_11)\n    /* \"erc20_implement/_ERC20.sol\":1831:2001  function mint(address _to,uint amount) public {... */\ntag_9:\n    /* \"erc20_implement/_ERC20.sol\":1904:1910  amount */\n  dup1\n    /* \"erc20_implement/_ERC20.sol\":1887:1895  balances */\n  0x02\n    /* \"erc20_implement/_ERC20.sol\":1887:1900  balances[_to] */\n  0x00\n    /* \"erc20_implement/_ERC20.sol\":1896:1899  _to */\n  dup5\n    /* \"erc20_implement/_ERC20.sol\":1887:1900  balances[_to] */\n  0xffffffffffffffffffffffffffffffffffffffff\n  and\n  0xffffffffffffffffffffffffffffffffffffffff\n  and\n  dup2\n  mstore\n  0x20\n  add\n  swap1\n  dup2\n  mstore\n  0x20\n  add\n  0x00\n  keccak256\n  0x00\n    /* \"erc20_implement/_ERC20.sol\":1887:1910  balances[_to] += amount */\n  dup3\n  dup3\n  sload\n  tag_13\n  swap2\n  swap1\n  tag_14\n  jump\t// in\ntag_13:\n  swap3\n  pop\n  pop\n  dup2\n  swap1\n  sstore\n  pop\n    /* \"erc20_implement/_ERC20.sol\":1935:1941  amount */\n  dup1\n    /* \"erc20_implement/_ERC20.sol\":1920:1931  totalTokens */\n  0x01\n  0x00\n    /* \"erc20_implement/_ERC20.sol\":1920:1941  totalTokens += amount */\n  dup3\n  dup3\n  sload\n  tag_15\n  swap2\n  swap1\n  tag_14\n  jump\t// in\ntag_15:\n  swap3\n  pop\n  pop\n  dup2\n  swap1\n  sstore\n  pop\n    /* \"erc20_implement/_ERC20.sol\":1976:1986  msg.sender */\n  caller\n    /* \"erc20_implement/_ERC20.sol\":1956:1994  Transfer(address(0),msg.sender,amount) */\n  0xffffffffffffffffffffffffffffffffffffffff\n  and\n    /* \"erc20_implement/_ERC20.sol\":1973:1974  0 */\n  0x00\n    /* \"erc20_implement/_ERC20.sol\":1956:1994  Transfer(address(0),msg.sender,amount) */\n  0xffffffffffffffffffffffffffffffffffffffff\n  and\n  0xddf252ad1be2c89b69c2b068fc378daa952ba7f163c4a11628f55a4df523b3ef\n    /* \"erc20_implement/_ERC20.sol\":1987:1993  amount */\n  dup4\n    /* \"erc20_implement/_ERC20.sol\":1956:1994  Transfer(address(0),msg.sender,amount) */\n  mload(0x40)\n  tag_16\n  swap2\n  swap1\n  tag_17\n  jump\t// in\ntag_16:\n  mload(0x40)\n  dup1\n  swap2\n  sub\n  swap1\n  log3\n    /* \"erc20_implement/_ERC20.sol\":1831:2001  function mint(address _to,uint amount) public {... */\n  pop\n  pop\n  jump\t// out\n    /* \"erc20_implement/_ERC20.sol\":3793:4284  contract Weth is ERC20 {... */\ntag_2:\n  dup3\n  dup1\n  sload\n  tag_18\n  swap1\n  tag_19\n  jump\t// in\ntag_18:\n  swap1\n  0x00\n  mstore\n  keccak256(0x00, 0x20)\n  swap1\n  0x1f\n  add\n  0x20\n  swap1\n  div\n  dup2\n  add\n  swap3\n  dup3\n  tag_21\n  jumpi\n  0x00\n  dup6\n  sstore\n  jump(tag_20)\ntag_21:\n  dup3\n  0x1f\n  lt\n  tag_22\n  jumpi\n  dup1\n  mload\n  not(0xff)\n  and\n  dup4\n  dup1\n  add\n  or\n  dup6\n  sstore\n  jump(tag_20)\ntag_22:\n  dup3\n  dup1\n  add\n  0x01\n  add\n  dup6\n  sstore\n  dup3\n  iszero\n  tag_20\n  jumpi\n  swap2\n  dup3\n  add\ntag_23:\n  dup3\n  dup2\n  gt\n  iszero\n  tag_24\n  jumpi\n  dup3\n  mload\n  dup3\n  sstore\n  swap2\n  0x20\n  add\n  swap2\n  swap1\n  0x01\n  add\n  swap1\n  jump(tag_23)\ntag_24:\ntag_20:\n  pop\n  swap1\n  pop\n  tag_25\n  swap2\n  swap1\n  tag_26\n  jump\t// in\ntag_25:\n  pop\n  swap1\n  jump\t// out\ntag_26:\ntag_27:\n  dup1\n  dup3\n  gt\n  iszero\n  tag_28\n  jumpi\n  0x00\n  dup2\n  0x00\n  swap1\n  sstore\n  pop\n  0x01\n  add\n  jump(tag_27)\ntag_28:\n  pop\n  swap1\n  jump\t// out\n    /* \"#utility.yul\":7:125   */\ntag_30:\n    /* \"#utility.yul\":94:118   */\n  tag_32\n    /* \"#utility.yul\":112:117   */\n  dup2\n    /* \"#utility.yul\":94:118   */\n  tag_33\n  jump\t// in\ntag_32:\n    /* \"#utility.yul\":89:92   */\n  dup3\n    /* \"#utility.yul\":82:119   */\n  mstore\n    /* \"#utility.yul\":7:125   */\n  pop\n  pop\n  jump\t// out\n    /* \"#utility.yul\":131:353   */\ntag_17:\n    /* \"#utility.yul\":224:228   */\n  0x00\n    /* \"#utility.yul\":262:264   */\n  0x20\n    /* \"#utility.yul\":251:260   */\n  dup3\n    /* \"#utility.yul\":247:265   */\n  add\n    /* \"#utility.yul\":239:265   */\n  swap1\n  pop\n    /* \"#utility.yul\":275:346   */\n  tag_35\n    /* \"#utility.yul\":343:344   */\n  0x00\n    /* \"#utility.yul\":332:341   */\n  dup4\n    /* \"#utility.yul\":328:345   */\n  add\n    /* \"#utility.yul\":319:325   */\n  dup5\n    /* \"#utility.yul\":275:346   */\n  tag_30\n  jump\t// in\ntag_35:\n    /* \"#utility.yul\":131:353   */\n  swap3\n  swap2\n  pop\n  pop\n  jump\t// out\n    /* \"#utility.yul\":359:664   */\ntag_14:\n    /* \"#utility.yul\":399:402   */\n  0x00\n    /* \"#utility.yul\":418:438   */\n  tag_37\n    /* \"#utility.yul\":436:437   */\n  dup3\n    /* \"#utility.yul\":418:438   */\n  tag_33\n  jump\t// in\ntag_37:\n    /* \"#utility.yul\":413:438   */\n  swap2\n  pop\n    /* \"#utility.yul\":452:472   */\n  tag_38\n    /* \"#utility.yul\":470:471   */\n  dup4\n    /* \"#utility.yul\":452:472   */\n  tag_33\n  jump\t// in\ntag_38:\n    /* \"#utility.yul\":447:472   */\n  swap3\n  pop\n    /* \"#utility.yul\":606:607   */\n  dup3\n    /* \"#utility.yul\":538:604   */\n  0xffffffffffffffffffffffffffffffffffffffffffffffffffffffffffffffff\n    /* \"#utility.yul\":534:608   */\n  sub\n    /* \"#utility.yul\":531:532   */\n  dup3\n    /* \"#utility.yul\":528:609   */\n  gt\n    /* \"#utility.yul\":525:632   */\n  iszero\n  tag_39\n  jumpi\n    /* \"#utility.yul\":612:630   */\n  tag_40\n  tag_41\n  jump\t// in\ntag_40:\n    /* \"#utility.yul\":525:632   */\ntag_39:\n    /* \"#utility.yul\":656:657   */\n  dup3\n    /* \"#utility.yul\":653:654   */\n  dup3\n    /* \"#utility.yul\":649:658   */\n  add\n    /* \"#utility.yul\":642:658   */\n  swap1\n  pop\n    /* \"#utility.yul\":359:664   */\n  swap3\n  swap2\n  pop\n  pop\n  jump\t// out\n    /* \"#utility.yul\":670:747   */\ntag_33:\n    /* \"#utility.yul\":707:714   */\n  0x00\n    /* \"#utility.yul\":736:741   */\n  dup2\n    /* \"#utility.yul\":725:741   */\n  swap1\n  pop\n    /* \"#utility.yul\":670:747   */\n  swap2\n  swap1\n  pop\n  jump\t// out\n    /* \"#utility.yul\":753:1073   */\ntag_19:\n    /* \"#utility.yul\":797:803   */\n  0x00\n    /* \"#utility.yul\":834:835   */\n  0x02\n    /* \"#utility.yul\":828:832   */\n  dup3\n    /* \"#utility.yul\":824:836   */\n  div\n    /* \"#utility.yul\":814:836   */\n  swap1\n  pop\n    /* \"#utility.yul\":881:882   */\n  0x01\n    /* \"#utility.yul\":875:879   */\n  dup3\n    /* \"#utility.yul\":871:883   */\n  and\n    /* \"#utility.yul\":902:920   */\n  dup1\n    /* \"#utility.yul\":892:973   */\n  tag_44\n  jumpi\n    /* \"#utility.yul\":958:962   */\n  0x7f\n    /* \"#utility.yul\":950:956   */\n  dup3\n    /* \"#utility.yul\":946:963   */\n  and\n    /* \"#utility.yul\":936:963   */\n  swap2\n  pop\n    /* \"#utility.yul\":892:973   */\ntag_44:\n    /* \"#utility.yul\":1020:1022   */\n  0x20\n    /* \"#utility.yul\":1012:1018   */\n  dup3\n    /* \"#utility.yul\":1009:1023   */\n  lt\n    /* \"#utility.yul\":989:1007   */\n  dup2\n    /* \"#utility.yul\":986:1024   */\n  eq\n    /* \"#utility.yul\":983:1067   */\n  iszero\n  tag_45\n  jumpi\n    /* \"#utility.yul\":1039:1057   */\n  tag_46\n  tag_47\n  jump\t// in\ntag_46:\n    /* \"#utility.yul\":983:1067   */\ntag_45:\n    /* \"#utility.yul\":804:1073   */\n  pop\n    /* \"#utility.yul\":753:1073   */\n  swap2\n  swap1\n  pop\n  jump\t// out\n    /* \"#utility.yul\":1079:1259   */\ntag_41:\n    /* \"#utility.yul\":1127:1204   */\n  0x4e487b7100000000000000000000000000000000000000000000000000000000\n    /* \"#utility.yul\":1124:1125   */\n  0x00\n    /* \"#utility.yul\":1117:1205   */\n  mstore\n    /* \"#utility.yul\":1224:1228   */\n  0x11\n    /* \"#utility.yul\":1221:1222   */\n  0x04\n    /* \"#utility.yul\":1214:1229   */\n  mstore\n    /* \"#utility.yul\":1248:1252   */\n  0x24\n    /* \"#utility.yul\":1245:1246   */\n  0x00\n    /* \"#utility.yul\":1238:1253   */\n  revert\n    /* \"#utility.yul\":1265:1445   */\ntag_47:\n    /* \"#utility.yul\":1313:1390   */\n  0x4e487b7100000000000000000000000000000000000000000000000000000000\n    /* \"#utility.yul\":1310:1311   */\n  0x00\n    /* \"#utility.yul\":1303:1391   */\n  mstore\n    /* \"#utility.yul\":1410:1414   */\n  0x22\n    /* \"#utility.yul\":1407:1408   */\n  0x04\n    /* \"#utility.yul\":1400:1415   */\n  mstore\n    /* \"#utility.yul\":1434:1438   */\n  0x24\n    /* \"#utility.yul\":1431:1432   */\n  0x00\n    /* \"#utility.yul\":1424:1439   */\n  revert\n    /* \"erc20_implement/_ERC20.sol\":3793:4284  contract Weth is ERC20 {... */\ntag_11:\n  dataSize(sub_0)\n  dup1\n  dataOffset(sub_0)\n  0x00\n  codecopy\n  0x00\n  return\nstop\n\nsub_0: assembly {\n        /* \"erc20_implement/_ERC20.sol\":3793:4284  contract Weth is ERC20 {... */\n      mstore(0x40, 0x80)\n      jumpi(tag_1, lt(calldatasize, 0x04))\n      shr(0xe0, calldataload(0x00))\n      dup1\n      0x40c10f19\n      gt\n      tag_16\n      jumpi\n      dup1\n      0x9dc29fac\n      gt\n      tag_17\n      jumpi\n      dup1\n      0x9dc29fac\n      eq\n      tag_12\n      jumpi\n      dup1\n      0xa9059cbb\n      eq\n      tag_13\n      jumpi\n      dup1\n      0xd0e30db0\n      eq\n      tag_14\n      jumpi\n      dup1\n      0xdd62ed3e\n      eq\n      tag_15\n      jumpi\n      jump(tag_2)\n    tag_17:\n      dup1\n      0x40c10f19\n      eq\n      tag_9\n      jumpi\n      dup1\n      0x70a08231\n      eq\n      tag_10\n      jumpi\n      dup1\n      0x95d89b41\n      eq\n      tag_11\n      jumpi\n      jump(tag_2)\n    tag_16:\n      dup1\n      0x06fdde03\n      eq\n      tag_3\n      jumpi\n      dup1\n      0x095ea7b3\n      eq\n      tag_4\n      jumpi\n      dup1\n      0x18160ddd\n      eq\n      tag_5\n      jumpi\n      dup1\n      0x23b872dd\n      eq\n      tag_6\n      jumpi\n      dup1\n      0x2e1a7d4d\n      eq\n      tag_7\n      jumpi\n      dup1\n      0x313ce567\n      eq\n      tag_8\n      jumpi\n      jump(tag_2)\n    tag_1:\n      jumpi(tag_2, calldatasize)\n        /* \"erc20_implement/_ERC20.sol\":4084:4093  deposit() */\n      tag_20\n        /* \"erc20_implement/_ERC20.sol\":4084:4091  deposit */\n      tag_21\n        /* \"erc20_implement/_ERC20.sol\":4084:4093  deposit() */\n      jump\t// in\n    tag_20:\n        /* \"erc20_implement/_ERC20.sol\":3793:4284  contract Weth is ERC20 {... */\n      stop\n    tag_2:\n      stop\n        /* \"erc20_implement/_ERC20.sol\":259:286  string public name = \"Chai\" */\n    tag_3:\n      callvalue\n      dup1\n      iszero\n      tag_24\n      jumpi\n      0x00\n      dup1\n      revert\n    tag_24:\n      pop\n      tag_25\n      tag_26\n      jump\t// in\n    tag_25:\n      mload(0x40)\n      tag_27\n      swap2\n      swap1\n      tag_28\n      jump\t// in\n    tag_27:\n      mload(0x40)\n      dup1\n      swap2\n      sub\n      swap1\n      return\n        /* \"erc20_implement/_ERC20.sol\":1357:1529  function approve(address spender, uint amount) override external {... */\n    tag_4:\n      callvalue\n      dup1\n      iszero\n      tag_29\n      jumpi\n      0x00\n      dup1\n      revert\n    tag_29:\n      pop\n      tag_30\n      0x04\n      dup1\n      calldatasize\n      sub\n      dup2\n      add\n      swap1\n      tag_31\n      swap2\n      swap1\n      tag_32\n      jump\t// in\n    tag_31:\n      tag_33\n      jump\t// in\n    tag_30:\n      stop\n        /* \"erc20_implement/_ERC20.sol\":767:860  function totalSupply() override public view returns (uint){... */\n    tag_5:\n      callvalue\n      dup1\n      iszero\n      tag_34\n      jumpi\n      0x00\n      dup1\n      revert\n    tag_34:\n      pop\n      tag_35\n      tag_36\n      jump\t// in\n    tag_35:\n      mload(0x40)\n      tag_37\n      swap2\n      swap1\n      tag_38\n      jump\t// in\n    tag_37:\n      mload(0x40)\n      dup1\n      swap2\n      sub\n      swap1\n      return\n        /* \"erc20_implement/_ERC20.sol\":1534:1826  function transferFrom(address sender, address recipient, uint amount) override public enoughTokens(sender,amount){... */\n    tag_6:\n      callvalue\n      dup1\n      iszero\n      tag_39\n      jumpi\n      0x00\n      dup1\n      revert\n    tag_39:\n      pop\n      tag_40\n      0x04\n      dup1\n      calldatasize\n      sub\n      dup2\n      add\n      swap1\n      tag_41\n      swap2\n      swap1\n      tag_42\n      jump\t// in\n    tag_41:\n      tag_43\n      jump\t// in\n    tag_40:\n      stop\n        /* \"erc20_implement/_ERC20.sol\":4105:4282  function withdraw(uint _amount) public{... */\n    tag_7:\n      callvalue\n      dup1\n      iszero\n      tag_44\n      jumpi\n      0x00\n      dup1\n      revert\n    tag_44:\n      pop\n      tag_45\n      0x04\n      dup1\n      calldatasize\n      sub\n      dup2\n      add\n      swap1\n      tag_46\n      swap2\n      swap1\n      tag_47\n      jump\t// in\n    tag_46:\n      tag_48\n      jump\t// in\n    tag_45:\n      stop\n        /* \"erc20_implement/_ERC20.sol\":679:762  function decimals() override external pure returns(uint) {... */\n    tag_8:\n      callvalue\n      dup1\n      iszero\n      tag_49\n      jumpi\n      0x00\n      dup1\n      revert\n    tag_49:\n      pop\n      tag_50\n      tag_51\n      jump\t// in\n    tag_50:\n      mload(0x40)\n      tag_52\n      swap2\n      swap1\n      tag_38\n      jump\t// in\n    tag_52:\n      mload(0x40)\n      dup1\n      swap2\n      sub\n      swap1\n      return\n        /* \"erc20_implement/_ERC20.sol\":1831:2001  function mint(address _to,uint amount) public {... */\n    tag_9:\n      callvalue\n      dup1\n      iszero\n      tag_53\n      jumpi\n      0x00\n      dup1\n      revert\n    tag_53:\n      pop\n      tag_54\n      0x04\n      dup1\n      calldatasize\n      sub\n      dup2\n      add\n      swap1\n      tag_55\n      swap2\n      swap1\n      tag_32\n      jump\t// in\n    tag_55:\n      tag_56\n      jump\t// in\n    tag_54:\n      stop\n        /* \"erc20_implement/_ERC20.sol\":865:976  function balanceOf(address account) override public view returns(uint){... */\n    tag_10:\n      callvalue\n      dup1\n      iszero\n      tag_57\n      jumpi\n      0x00\n      dup1\n      revert\n    tag_57:\n      pop\n      tag_58\n      0x04\n      dup1\n      calldatasize\n      sub\n      dup2\n      add\n      swap1\n      tag_59\n      swap2\n      swap1\n      tag_60\n      jump\t// in\n    tag_59:\n      tag_61\n      jump\t// in\n    tag_58:\n      mload(0x40)\n      tag_62\n      swap2\n      swap1\n      tag_38\n      jump\t// in\n    tag_62:\n      mload(0x40)\n      dup1\n      swap2\n      sub\n      swap1\n      return\n        /* \"erc20_implement/_ERC20.sol\":292:320  string public symbol = \"CHA\" */\n    tag_11:\n      callvalue\n      dup1\n      iszero\n      tag_63\n      jumpi\n      0x00\n      dup1\n      revert\n    tag_63:\n      pop\n      tag_64\n      tag_65\n      jump\t// in\n    tag_64:\n      mload(0x40)\n      tag_66\n      swap2\n      swap1\n      tag_28\n      jump\t// in\n    tag_66:\n      mload(0x40)\n      dup1\n      swap2\n      sub\n      swap1\n      return\n        /* \"erc20_implement/_ERC20.sol\":2006:2210  function burn(address _to,uint amount) public enoughTokens(msg.sender,amount)   {... */\n    tag_12:\n      callvalue\n      dup1\n      iszero\n      tag_67\n      jumpi\n      0x00\n      dup1\n      revert\n    tag_67:\n      pop\n      tag_68\n      0x04\n      dup1\n      calldatasize\n      sub\n      dup2\n      add\n      swap1\n      tag_69\n      swap2\n      swap1\n      tag_32\n      jump\t// in\n    tag_69:\n      tag_70\n      jump\t// in\n    tag_68:\n      stop\n        /* \"erc20_implement/_ERC20.sol\":981:1209  function transfer(address _to, uint _amount) override external enoughTokens(msg.sender, _amount) {... */\n    tag_13:\n      callvalue\n      dup1\n      iszero\n      tag_71\n      jumpi\n      0x00\n      dup1\n      revert\n    tag_71:\n      pop\n      tag_72\n      0x04\n      dup1\n      calldatasize\n      sub\n      dup2\n      add\n      swap1\n      tag_73\n      swap2\n      swap1\n      tag_32\n      jump\t// in\n    tag_73:\n      tag_74\n      jump\t// in\n    tag_72:\n      stop\n        /* \"erc20_implement/_ERC20.sol\":3912:4034  function deposit() public payable {... */\n    tag_14:\n      tag_75\n      tag_21\n      jump\t// in\n    tag_75:\n      stop\n        /* \"erc20_implement/_ERC20.sol\":1214:1352  function allowance(address owner, address spender) override external view returns(uint) {... */\n    tag_15:\n      callvalue\n      dup1\n      iszero\n      tag_76\n      jumpi\n      0x00\n      dup1\n      revert\n    tag_76:\n      pop\n      tag_77\n      0x04\n      dup1\n      calldatasize\n      sub\n      dup2\n      add\n      swap1\n      tag_78\n      swap2\n      swap1\n      tag_79\n      jump\t// in\n    tag_78:\n      tag_80\n      jump\t// in\n    tag_77:\n      mload(0x40)\n      tag_81\n      swap2\n      swap1\n      tag_38\n      jump\t// in\n    tag_81:\n      mload(0x40)\n      dup1\n      swap2\n      sub\n      swap1\n      return\n        /* \"erc20_implement/_ERC20.sol\":3912:4034  function deposit() public payable {... */\n    tag_21:\n        /* \"erc20_implement/_ERC20.sol\":3956:3983  mint(msg.sender, msg.value) */\n      tag_83\n        /* \"erc20_implement/_ERC20.sol\":3961:3971  msg.sender */\n      caller\n        /* \"erc20_implement/_ERC20.sol\":3973:3982  msg.value */\n      callvalue\n        /* \"erc20_implement/_ERC20.sol\":3956:3960  mint */\n      tag_56\n        /* \"erc20_implement/_ERC20.sol\":3956:3983  mint(msg.sender, msg.value) */\n      jump\t// in\n    tag_83:\n        /* \"erc20_implement/_ERC20.sol\":4006:4016  msg.sender */\n      caller\n        /* \"erc20_implement/_ERC20.sol\":3998:4027  Deposit(msg.sender,msg.value) */\n      0xffffffffffffffffffffffffffffffffffffffff\n      and\n      0xe1fffcc4923d04b559f4d29a8bfc6cda04eb5b0d3c460751c2402c5c5cc9109c\n        /* \"erc20_implement/_ERC20.sol\":4017:4026  msg.value */\n      callvalue\n        /* \"erc20_implement/_ERC20.sol\":3998:4027  Deposit(msg.sender,msg.value) */\n      mload(0x40)\n      tag_84\n      swap2\n      swap1\n      tag_38\n      jump\t// in\n    tag_84:\n      mload(0x40)\n      dup1\n      swap2\n      sub\n      swap1\n      log2\n        /* \"erc20_implement/_ERC20.sol\":3912:4034  function deposit() public payable {... */\n      jump\t// out\n        /* \"erc20_implement/_ERC20.sol\":259:286  string public name = \"Chai\" */\n    tag_26:\n      0x04\n      dup1\n      sload\n      tag_85\n      swap1\n      tag_86\n      jump\t// in\n    tag_85:\n      dup1\n      0x1f\n      add\n      0x20\n      dup1\n      swap2\n      div\n      mul\n      0x20\n      add\n      mload(0x40)\n      swap1\n      dup2\n      add\n      0x40\n      mstore\n      dup1\n      swap3\n      swap2\n      swap1\n      dup2\n      dup2\n      mstore\n      0x20\n      add\n      dup3\n      dup1\n      sload\n      tag_87\n      swap1\n      tag_86\n      jump\t// in\n    tag_87:\n      dup1\n      iszero\n      tag_88\n      jumpi\n      dup1\n      0x1f\n      lt\n      tag_89\n      jumpi\n      0x0100\n      dup1\n      dup4\n      sload\n      div\n      mul\n      dup4\n      mstore\n      swap2\n      0x20\n      add\n      swap2\n      jump(tag_88)\n    tag_89:\n      dup3\n      add\n      swap2\n      swap1\n      0x00\n      mstore\n      keccak256(0x00, 0x20)\n      swap1\n    tag_90:\n      dup2\n      sload\n      dup2\n      mstore\n      swap1\n      0x01\n      add\n      swap1\n      0x20\n      add\n      dup1\n      dup4\n      gt\n      tag_90\n      jumpi\n      dup3\n      swap1\n      sub\n      0x1f\n      and\n      dup3\n      add\n      swap2\n    tag_88:\n      pop\n      pop\n      pop\n      pop\n      pop\n      dup2\n      jump\t// out\n        /* \"erc20_implement/_ERC20.sol\":1357:1529  function approve(address spender, uint amount) override external {... */\n    tag_33:\n        /* \"erc20_implement/_ERC20.sol\":1466:1472  amount */\n      dup1\n        /* \"erc20_implement/_ERC20.sol\":1432:1442  allowances */\n      0x03\n        /* \"erc20_implement/_ERC20.sol\":1432:1454  allowances[msg.sender] */\n      0x00\n        /* \"erc20_implement/_ERC20.sol\":1443:1453  msg.sender */\n      caller\n        /* \"erc20_implement/_ERC20.sol\":1432:1454  allowances[msg.sender] */\n      0xffffffffffffffffffffffffffffffffffffffff\n      and\n      0xffffffffffffffffffffffffffffffffffffffff\n      and\n      dup2\n      mstore\n      0x20\n      add\n      swap1\n      dup2\n      mstore\n      0x20\n      add\n      0x00\n      keccak256\n        /* \"erc20_implement/_ERC20.sol\":1432:1463  allowances[msg.sender][spender] */\n      0x00\n        /* \"erc20_implement/_ERC20.sol\":1455:1462  spender */\n      dup5\n        /* \"erc20_implement/_ERC20.sol\":1432:1463  allowances[msg.sender][spender] */\n      0xffffffffffffffffffffffffffffffffffffffff\n      and\n      0xffffffffffffffffffffffffffffffffffffffff\n      and\n      dup2\n      mstore\n      0x20\n      add\n      swap1\n      dup2\n      mstore\n      0x20\n      add\n      0x00\n      keccak256\n        /* \"erc20_implement/_ERC20.sol\":1432:1472  allowances[msg.sender][spender] = amount */\n      dup2\n      swap1\n      sstore\n      pop\n        /* \"erc20_implement/_ERC20.sol\":1507:1514  spender */\n      dup2\n        /* \"erc20_implement/_ERC20.sol\":1487:1522  Approval(msg.sender,spender,amount) */\n      0xffffffffffffffffffffffffffffffffffffffff\n      and\n        /* \"erc20_implement/_ERC20.sol\":1496:1506  msg.sender */\n      caller\n        /* \"erc20_implement/_ERC20.sol\":1487:1522  Approval(msg.sender,spender,amount) */\n      0xffffffffffffffffffffffffffffffffffffffff\n      and\n      0x8c5be1e5ebec7d5bd14f71427d1e84f3dd0314c0f7b2291e5b200ac8c7c3b925\n        /* \"erc20_implement/_ERC20.sol\":1515:1521  amount */\n      dup4\n        /* \"erc20_implement/_ERC20.sol\":1487:1522  Approval(msg.sender,spender,amount) */\n      mload(0x40)\n      tag_92\n      swap2\n      swap1\n      tag_38\n      jump\t// in\n    tag_92:\n      mload(0x40)\n      dup1\n      swap2\n      sub\n      swap1\n      log3\n        /* \"erc20_implement/_ERC20.sol\":1357:1529  function approve(address spender, uint amount) override external {... */\n      pop\n      pop\n      jump\t// out\n        /* \"erc20_implement/_ERC20.sol\":767:860  function totalSupply() override public view returns (uint){... */\n    tag_36:\n        /* \"erc20_implement/_ERC20.sol\":820:824  uint */\n      0x00\n        /* \"erc20_implement/_ERC20.sol\":842:853  totalTokens */\n      sload(0x01)\n        /* \"erc20_implement/_ERC20.sol\":835:853  return totalTokens */\n      swap1\n      pop\n        /* \"erc20_implement/_ERC20.sol\":767:860  function totalSupply() override public view returns (uint){... */\n      swap1\n      jump\t// out\n        /* \"erc20_implement/_ERC20.sol\":1534:1826  function transferFrom(address sender, address recipient, uint amount) override public enoughTokens(sender,amount){... */\n    tag_43:\n        /* \"erc20_implement/_ERC20.sol\":1633:1639  sender */\n      dup3\n        /* \"erc20_implement/_ERC20.sol\":1640:1646  amount */\n      dup2\n        /* \"erc20_implement/_ERC20.sol\":525:532  _amount */\n      dup1\n        /* \"erc20_implement/_ERC20.sol\":505:521  balanceOf(_from) */\n      tag_95\n        /* \"erc20_implement/_ERC20.sol\":515:520  _from */\n      dup4\n        /* \"erc20_implement/_ERC20.sol\":505:514  balanceOf */\n      tag_61\n        /* \"erc20_implement/_ERC20.sol\":505:521  balanceOf(_from) */\n      jump\t// in\n    tag_95:\n        /* \"erc20_implement/_ERC20.sol\":505:532  balanceOf(_from) >= _amount */\n      lt\n      iszero\n        /* \"erc20_implement/_ERC20.sol\":497:554  require(balanceOf(_from) >= _amount, \"not enough tokens\") */\n      tag_96\n      jumpi\n      mload(0x40)\n      0x08c379a000000000000000000000000000000000000000000000000000000000\n      dup2\n      mstore\n      0x04\n      add\n      tag_97\n      swap1\n      tag_98\n      jump\t// in\n    tag_97:\n      mload(0x40)\n      dup1\n      swap2\n      sub\n      swap1\n      revert\n    tag_96:\n        /* \"erc20_implement/_ERC20.sol\":1690:1696  amount */\n      dup3\n        /* \"erc20_implement/_ERC20.sol\":1657:1667  allowances */\n      0x03\n        /* \"erc20_implement/_ERC20.sol\":1657:1675  allowances[sender] */\n      0x00\n        /* \"erc20_implement/_ERC20.sol\":1668:1674  sender */\n      dup8\n        /* \"erc20_implement/_ERC20.sol\":1657:1675  allowances[sender] */\n      0xffffffffffffffffffffffffffffffffffffffff\n      and\n      0xffffffffffffffffffffffffffffffffffffffff\n      and\n      dup2\n      mstore\n      0x20\n      add\n      swap1\n      dup2\n      mstore\n      0x20\n      add\n      0x00\n      keccak256\n        /* \"erc20_implement/_ERC20.sol\":1657:1686  allowances[sender][recipient] */\n      0x00\n        /* \"erc20_implement/_ERC20.sol\":1676:1685  recipient */\n      dup7\n        /* \"erc20_implement/_ERC20.sol\":1657:1686  allowances[sender][recipient] */\n      0xffffffffffffffffffffffffffffffffffffffff\n      and\n      0xffffffffffffffffffffffffffffffffffffffff\n      and\n      dup2\n      mstore\n      0x20\n      add\n      swap1\n      dup2\n      mstore\n      0x20\n      add\n      0x00\n      keccak256\n      0x00\n        /* \"erc20_implement/_ERC20.sol\":1657:1696  allowances[sender][recipient] -= amount */\n      dup3\n      dup3\n      sload\n      tag_100\n      swap2\n      swap1\n      tag_101\n      jump\t// in\n    tag_100:\n      swap3\n      pop\n      pop\n      dup2\n      swap1\n      sstore\n      pop\n        /* \"erc20_implement/_ERC20.sol\":1726:1732  amount */\n      dup3\n        /* \"erc20_implement/_ERC20.sol\":1706:1714  balances */\n      0x02\n        /* \"erc20_implement/_ERC20.sol\":1706:1722  balances[sender] */\n      0x00\n        /* \"erc20_implement/_ERC20.sol\":1715:1721  sender */\n      dup8\n        /* \"erc20_implement/_ERC20.sol\":1706:1722  balances[sender] */\n      0xffffffffffffffffffffffffffffffffffffffff\n      and\n      0xffffffffffffffffffffffffffffffffffffffff\n      and\n      dup2\n      mstore\n      0x20\n      add\n      swap1\n      dup2\n      mstore\n      0x20\n      add\n      0x00\n      keccak256\n      0x00\n        /* \"erc20_implement/_ERC20.sol\":1706:1732  balances[sender] -= amount */\n      dup3\n      dup3\n      sload\n      tag_102\n      swap2\n      swap1\n      tag_101\n      jump\t// in\n    tag_102:\n      swap3\n      pop\n      pop\n      dup2\n      swap1\n      sstore\n      pop\n        /* \"erc20_implement/_ERC20.sol\":1765:1771  amount */\n      dup3\n        /* \"erc20_implement/_ERC20.sol\":1742:1750  balances */\n      0x02\n        /* \"erc20_implement/_ERC20.sol\":1742:1761  balances[recipient] */\n      0x00\n        /* \"erc20_implement/_ERC20.sol\":1751:1760  recipient */\n      dup7\n        /* \"erc20_implement/_ERC20.sol\":1742:1761  balances[recipient] */\n      0xffffffffffffffffffffffffffffffffffffffff\n      and\n      0xffffffffffffffffffffffffffffffffffffffff\n      and\n      dup2\n      mstore\n      0x20\n      add\n      swap1\n      dup2\n      mstore\n      0x20\n      add\n      0x00\n      keccak256\n      0x00\n        /* \"erc20_implement/_ERC20.sol\":1742:1771  balances[recipient] += amount */\n      dup3\n      dup3\n      sload\n      tag_103\n      swap2\n      swap1\n      tag_104\n      jump\t// in\n    tag_103:\n      swap3\n      pop\n      pop\n      dup2\n      swap1\n      sstore\n      pop\n        /* \"erc20_implement/_ERC20.sol\":1802:1811  recipient */\n      dup4\n        /* \"erc20_implement/_ERC20.sol\":1786:1819  Transfer(sender,recipient,amount) */\n      0xffffffffffffffffffffffffffffffffffffffff\n      and\n        /* \"erc20_implement/_ERC20.sol\":1795:1801  sender */\n      dup6\n        /* \"erc20_implement/_ERC20.sol\":1786:1819  Transfer(sender,recipient,amount) */\n      0xffffffffffffffffffffffffffffffffffffffff\n      and\n      0xddf252ad1be2c89b69c2b068fc378daa952ba7f163c4a11628f55a4df523b3ef\n        /* \"erc20_implement/_ERC20.sol\":1812:1818  amount */\n      dup6\n        /* \"erc20_implement/_ERC20.sol\":1786:1819  Transfer(sender,recipient,amount) */\n      mload(0x40)\n      tag_105\n      swap2\n      swap1\n      tag_38\n      jump\t// in\n    tag_105:\n      mload(0x40)\n      dup1\n      swap2\n      sub\n      swap1\n      log3\n        /* \"erc20_implement/_ERC20.sol\":1534:1826  function transferFrom(address sender, address recipient, uint amount) override public enoughTokens(sender,amount){... */\n      pop\n      pop\n      pop\n      pop\n      pop\n      jump\t// out\n        /* \"erc20_implement/_ERC20.sol\":4105:4282  function withdraw(uint _amount) public{... */\n    tag_48:\n        /* \"erc20_implement/_ERC20.sol\":4153:4177  burn(msg.sender,_amount) */\n      tag_107\n        /* \"erc20_implement/_ERC20.sol\":4158:4168  msg.sender */\n      caller\n        /* \"erc20_implement/_ERC20.sol\":4169:4176  _amount */\n      dup3\n        /* \"erc20_implement/_ERC20.sol\":4153:4157  burn */\n      tag_70\n        /* \"erc20_implement/_ERC20.sol\":4153:4177  burn(msg.sender,_amount) */\n      jump\t// in\n    tag_107:\n        /* \"erc20_implement/_ERC20.sol\":4188:4200  bool success */\n      0x00\n        /* \"erc20_implement/_ERC20.sol\":4205:4215  msg.sender */\n      caller\n        /* \"erc20_implement/_ERC20.sol\":4205:4220  msg.sender.call */\n      0xffffffffffffffffffffffffffffffffffffffff\n      and\n        /* \"erc20_implement/_ERC20.sol\":4227:4234  _amount */\n      dup3\n        /* \"erc20_implement/_ERC20.sol\":4205:4239  msg.sender.call{value:_amount}(\"\") */\n      mload(0x40)\n      tag_108\n      swap1\n      tag_109\n      jump\t// in\n    tag_108:\n      0x00\n      mload(0x40)\n      dup1\n      dup4\n      sub\n      dup2\n      dup6\n      dup8\n      gas\n      call\n      swap3\n      pop\n      pop\n      pop\n      returndatasize\n      dup1\n      0x00\n      dup2\n      eq\n      tag_112\n      jumpi\n      mload(0x40)\n      swap2\n      pop\n      and(add(returndatasize, 0x3f), not(0x1f))\n      dup3\n      add\n      0x40\n      mstore\n      returndatasize\n      dup3\n      mstore\n      returndatasize\n      0x00\n      0x20\n      dup5\n      add\n      returndatacopy\n      jump(tag_111)\n    tag_112:\n      0x60\n      swap2\n      pop\n    tag_111:\n      pop\n        /* \"erc20_implement/_ERC20.sol\":4187:4239  (bool success,) = msg.sender.call{value:_amount}(\"\") */\n      pop\n      swap1\n      pop\n        /* \"erc20_implement/_ERC20.sol\":4257:4264  success */\n      dup1\n        /* \"erc20_implement/_ERC20.sol\":4249:4275  require(success,\"failed!\") */\n      tag_113\n      jumpi\n      mload(0x40)\n      0x08c379a000000000000000000000000000000000000000000000000000000000\n      dup2\n      mstore\n      0x04\n      add\n      tag_114\n      swap1\n      tag_115\n      jump\t// in\n    tag_114:\n      mload(0x40)\n      dup1\n      swap2\n      sub\n      swap1\n      revert\n    tag_113:\n        /* \"erc20_implement/_ERC20.sol\":4143:4282  {... */\n      pop\n        /* \"erc20_implement/_ERC20.sol\":4105:4282  function withdraw(uint _amount) public{... */\n      pop\n      jump\t// out\n        /* \"erc20_implement/_ERC20.sol\":679:762  function decimals() override external pure returns(uint) {... */\n    tag_51:\n        /* \"erc20_implement/_ERC20.sol\":730:734  uint */\n      0x00\n        /* \"erc20_implement/_ERC20.sol\":753:755  18 */\n      0x12\n        /* \"erc20_implement/_ERC20.sol\":746:755  return 18 */\n      swap1\n      pop\n        /* \"erc20_implement/_ERC20.sol\":679:762  function decimals() override external pure returns(uint) {... */\n      swap1\n      jump\t// out\n        /* \"erc20_implement/_ERC20.sol\":1831:2001  function mint(address _to,uint amount) public {... */\n    tag_56:\n        /* \"erc20_implement/_ERC20.sol\":1904:1910  amount */\n      dup1\n        /* \"erc20_implement/_ERC20.sol\":1887:1895  balances */\n      0x02\n        /* \"erc20_implement/_ERC20.sol\":1887:1900  balances[_to] */\n      0x00\n        /* \"erc20_implement/_ERC20.sol\":1896:1899  _to */\n      dup5\n        /* \"erc20_implement/_ERC20.sol\":1887:1900  balances[_to] */\n      0xffffffffffffffffffffffffffffffffffffffff\n      and\n      0xffffffffffffffffffffffffffffffffffffffff\n      and\n      dup2\n      mstore\n      0x20\n      add\n      swap1\n      dup2\n      mstore\n      0x20\n      add\n      0x00\n      keccak256\n      0x00\n        /* \"erc20_implement/_ERC20.sol\":1887:1910  balances[_to] += amount */\n      dup3\n      dup3\n      sload\n      tag_118\n      swap2\n      swap1\n      tag_104\n      jump\t// in\n    tag_118:\n      swap3\n      pop\n      pop\n      dup2\n      swap1\n      sstore\n      pop\n        /* \"erc20_implement/_ERC20.sol\":1935:1941  amount */\n      dup1\n        /* \"erc20_implement/_ERC20.sol\":1920:1931  totalTokens */\n      0x01\n      0x00\n        /* \"erc20_implement/_ERC20.sol\":1920:1941  totalTokens += amount */\n      dup3\n      dup3\n      sload\n      tag_119\n      swap2\n      swap1\n      tag_104\n      jump\t// in\n    tag_119:\n      swap3\n      pop\n      pop\n      dup2\n      swap1\n      sstore\n      pop\n        /* \"erc20_implement/_ERC20.sol\":1976:1986  msg.sender */\n      caller\n        /* \"erc20_implement/_ERC20.sol\":1956:1994  Transfer(address(0),msg.sender,amount) */\n      0xffffffffffffffffffffffffffffffffffffffff\n      and\n        /* \"erc20_implement/_ERC20.sol\":1973:1974  0 */\n      0x00\n        /* \"erc20_implement/_ERC20.sol\":1956:1994  Transfer(address(0),msg.sender,amount) */\n      0xffffffffffffffffffffffffffffffffffffffff\n      and\n      0xddf252ad1be2c89b69c2b068fc378daa952ba7f163c4a11628f55a4df523b3ef\n        /* \"erc20_implement/_ERC20.sol\":1987:1993  amount */\n      dup4\n        /* \"erc20_implement/_ERC20.sol\":1956:1994  Transfer(address(0),msg.sender,amount) */\n      mload(0x40)\n      tag_120\n      swap2\n      swap1\n      tag_38\n      jump\t// in\n    tag_120:\n      mload(0x40)\n      dup1\n      swap2\n      sub\n      swap1\n      log3\n        /* \"erc20_implement/_ERC20.sol\":1831:2001  function mint(address _to,uint amount) public {... */\n      pop\n      pop\n      jump\t// out\n        /* \"erc20_implement/_ERC20.sol\":865:976  function balanceOf(address account) override public view returns(uint){... */\n    tag_61:\n        /* \"erc20_implement/_ERC20.sol\":930:934  uint */\n      0x00\n        /* \"erc20_implement/_ERC20.sol\":952:960  balances */\n      0x02\n        /* \"erc20_implement/_ERC20.sol\":952:969  balances[account] */\n      0x00\n        /* \"erc20_implement/_ERC20.sol\":961:968  account */\n      dup4\n        /* \"erc20_implement/_ERC20.sol\":952:969  balances[account] */\n      0xffffffffffffffffffffffffffffffffffffffff\n      and\n      0xffffffffffffffffffffffffffffffffffffffff\n      and\n      dup2\n      mstore\n      0x20\n      add\n      swap1\n      dup2\n      mstore\n      0x20\n      add\n      0x00\n      keccak256\n      sload\n        /* \"erc20_implement/_ERC20.sol\":945:969  return balances[account] */\n      swap1\n      pop\n        /* \"erc20_implement/_ERC20.sol\":865:976  function balanceOf(address account) override public view returns(uint){... */\n      swap2\n      swap1\n      pop\n      jump\t// out\n        /* \"erc20_implement/_ERC20.sol\":292:320  string public symbol = \"CHA\" */\n    tag_65:\n      0x05\n      dup1\n      sload\n      tag_122\n      swap1\n      tag_86\n      jump\t// in\n    tag_122:\n      dup1\n      0x1f\n      add\n      0x20\n      dup1\n      swap2\n      div\n      mul\n      0x20\n      add\n      mload(0x40)\n      swap1\n      dup2\n      add\n      0x40\n      mstore\n      dup1\n      swap3\n      swap2\n      swap1\n      dup2\n      dup2\n      mstore\n      0x20\n      add\n      dup3\n      dup1\n      sload\n      tag_123\n      swap1\n      tag_86\n      jump\t// in\n    tag_123:\n      dup1\n      iszero\n      tag_124\n      jumpi\n      dup1\n      0x1f\n      lt\n      tag_125\n      jumpi\n      0x0100\n      dup1\n      dup4\n      sload\n      div\n      mul\n      dup4\n      mstore\n      swap2\n      0x20\n      add\n      swap2\n      jump(tag_124)\n    tag_125:\n      dup3\n      add\n      swap2\n      swap1\n      0x00\n      mstore\n      keccak256(0x00, 0x20)\n      swap1\n    tag_126:\n      dup2\n      sload\n      dup2\n      mstore\n      swap1\n      0x01\n      add\n      swap1\n      0x20\n      add\n      dup1\n      dup4\n      gt\n      tag_126\n      jumpi\n      dup3\n      swap1\n      sub\n      0x1f\n      and\n      dup3\n      add\n      swap2\n    tag_124:\n      pop\n      pop\n      pop\n      pop\n      pop\n      dup2\n      jump\t// out\n        /* \"erc20_implement/_ERC20.sol\":2006:2210  function burn(address _to,uint amount) public enoughTokens(msg.sender,amount)   {... */\n    tag_70:\n        /* \"erc20_implement/_ERC20.sol\":2065:2075  msg.sender */\n      caller\n        /* \"erc20_implement/_ERC20.sol\":2076:2082  amount */\n      dup2\n        /* \"erc20_implement/_ERC20.sol\":525:532  _amount */\n      dup1\n        /* \"erc20_implement/_ERC20.sol\":505:521  balanceOf(_from) */\n      tag_128\n        /* \"erc20_implement/_ERC20.sol\":515:520  _from */\n      dup4\n        /* \"erc20_implement/_ERC20.sol\":505:514  balanceOf */\n      tag_61\n        /* \"erc20_implement/_ERC20.sol\":505:521  balanceOf(_from) */\n      jump\t// in\n    tag_128:\n        /* \"erc20_implement/_ERC20.sol\":505:532  balanceOf(_from) >= _amount */\n      lt\n      iszero\n        /* \"erc20_implement/_ERC20.sol\":497:554  require(balanceOf(_from) >= _amount, \"not enough tokens\") */\n      tag_129\n      jumpi\n      mload(0x40)\n      0x08c379a000000000000000000000000000000000000000000000000000000000\n      dup2\n      mstore\n      0x04\n      add\n      tag_130\n      swap1\n      tag_98\n      jump\t// in\n    tag_130:\n      mload(0x40)\n      dup1\n      swap2\n      sub\n      swap1\n      revert\n    tag_129:\n        /* \"erc20_implement/_ERC20.sol\":2113:2119  amount */\n      dup3\n        /* \"erc20_implement/_ERC20.sol\":2096:2104  balances */\n      0x02\n        /* \"erc20_implement/_ERC20.sol\":2096:2109  balances[_to] */\n      0x00\n        /* \"erc20_implement/_ERC20.sol\":2105:2108  _to */\n      dup7\n        /* \"erc20_implement/_ERC20.sol\":2096:2109  balances[_to] */\n      0xffffffffffffffffffffffffffffffffffffffff\n      and\n      0xffffffffffffffffffffffffffffffffffffffff\n      and\n      dup2\n      mstore\n      0x20\n      add\n      swap1\n      dup2\n      mstore\n      0x20\n      add\n      0x00\n      keccak256\n      0x00\n        /* \"erc20_implement/_ERC20.sol\":2096:2119  balances[_to] -= amount */\n      dup3\n      dup3\n      sload\n      tag_132\n      swap2\n      swap1\n      tag_101\n      jump\t// in\n    tag_132:\n      swap3\n      pop\n      pop\n      dup2\n      swap1\n      sstore\n      pop\n        /* \"erc20_implement/_ERC20.sol\":2144:2150  amount */\n      dup3\n        /* \"erc20_implement/_ERC20.sol\":2129:2140  totalTokens */\n      0x01\n      0x00\n        /* \"erc20_implement/_ERC20.sol\":2129:2150  totalTokens -= amount */\n      dup3\n      dup3\n      sload\n      tag_133\n      swap2\n      swap1\n      tag_101\n      jump\t// in\n    tag_133:\n      swap3\n      pop\n      pop\n      dup2\n      swap1\n      sstore\n      pop\n        /* \"erc20_implement/_ERC20.sol\":2193:2194  0 */\n      0x00\n        /* \"erc20_implement/_ERC20.sol\":2165:2203  Transfer(msg.sender,address(0),amount) */\n      0xffffffffffffffffffffffffffffffffffffffff\n      and\n        /* \"erc20_implement/_ERC20.sol\":2174:2184  msg.sender */\n      caller\n        /* \"erc20_implement/_ERC20.sol\":2165:2203  Transfer(msg.sender,address(0),amount) */\n      0xffffffffffffffffffffffffffffffffffffffff\n      and\n      0xddf252ad1be2c89b69c2b068fc378daa952ba7f163c4a11628f55a4df523b3ef\n        /* \"erc20_implement/_ERC20.sol\":2196:2202  amount */\n      dup6\n        /* \"erc20_implement/_ERC20.sol\":2165:2203  Transfer(msg.sender,address(0),amount) */\n      mload(0x40)\n      tag_134\n      swap2\n      swap1\n      tag_38\n      jump\t// in\n    tag_134:\n      mload(0x40)\n      dup1\n      swap2\n      sub\n      swap1\n      log3\n        /* \"erc20_implement/_ERC20.sol\":2006:2210  function burn(address _to,uint amount) public enoughTokens(msg.sender,amount)   {... */\n      pop\n      pop\n      pop\n      pop\n      jump\t// out\n        /* \"erc20_implement/_ERC20.sol\":981:1209  function transfer(address _to, uint _amount) override external enoughTokens(msg.sender, _amount) {... */\n    tag_74:\n        /* \"erc20_implement/_ERC20.sol\":1057:1067  msg.sender */\n      caller\n        /* \"erc20_implement/_ERC20.sol\":1069:1076  _amount */\n      dup2\n        /* \"erc20_implement/_ERC20.sol\":525:532  _amount */\n      dup1\n        /* \"erc20_implement/_ERC20.sol\":505:521  balanceOf(_from) */\n      tag_136\n        /* \"erc20_implement/_ERC20.sol\":515:520  _from */\n      dup4\n        /* \"erc20_implement/_ERC20.sol\":505:514  balanceOf */\n      tag_61\n        /* \"erc20_implement/_ERC20.sol\":505:521  balanceOf(_from) */\n      jump\t// in\n    tag_136:\n        /* \"erc20_implement/_ERC20.sol\":505:532  balanceOf(_from) >= _amount */\n      lt\n      iszero\n        /* \"erc20_implement/_ERC20.sol\":497:554  require(balanceOf(_from) >= _amount, \"not enough tokens\") */\n      tag_137\n      jumpi\n      mload(0x40)\n      0x08c379a000000000000000000000000000000000000000000000000000000000\n      dup2\n      mstore\n      0x04\n      add\n      tag_138\n      swap1\n      tag_98\n      jump\t// in\n    tag_138:\n      mload(0x40)\n      dup1\n      swap2\n      sub\n      swap1\n      revert\n    tag_137:\n        /* \"erc20_implement/_ERC20.sol\":1112:1119  _amount */\n      dup3\n        /* \"erc20_implement/_ERC20.sol\":1088:1096  balances */\n      0x02\n        /* \"erc20_implement/_ERC20.sol\":1088:1108  balances[msg.sender] */\n      0x00\n        /* \"erc20_implement/_ERC20.sol\":1097:1107  msg.sender */\n      caller\n        /* \"erc20_implement/_ERC20.sol\":1088:1108  balances[msg.sender] */\n      0xffffffffffffffffffffffffffffffffffffffff\n      and\n      0xffffffffffffffffffffffffffffffffffffffff\n      and\n      dup2\n      mstore\n      0x20\n      add\n      swap1\n      dup2\n      mstore\n      0x20\n      add\n      0x00\n      keccak256\n      0x00\n        /* \"erc20_implement/_ERC20.sol\":1088:1119  balances[msg.sender] -= _amount */\n      dup3\n      dup3\n      sload\n      tag_140\n      swap2\n      swap1\n      tag_101\n      jump\t// in\n    tag_140:\n      swap3\n      pop\n      pop\n      dup2\n      swap1\n      sstore\n      pop\n        /* \"erc20_implement/_ERC20.sol\":1146:1153  _amount */\n      dup3\n        /* \"erc20_implement/_ERC20.sol\":1129:1137  balances */\n      0x02\n        /* \"erc20_implement/_ERC20.sol\":1129:1142  balances[_to] */\n      0x00\n        /* \"erc20_implement/_ERC20.sol\":1138:1141  _to */\n      dup7\n        /* \"erc20_implement/_ERC20.sol\":1129:1142  balances[_to] */\n      0xffffffffffffffffffffffffffffffffffffffff\n      and\n      0xffffffffffffffffffffffffffffffffffffffff\n      and\n      dup2\n      mstore\n      0x20\n      add\n      swap1\n      dup2\n      mstore\n      0x20\n      add\n      0x00\n      keccak256\n      0x00\n        /* \"erc20_implement/_ERC20.sol\":1129:1153  balances[_to] += _amount */\n      dup3\n      dup3\n      sload\n      tag_141\n      swap2\n      swap1\n      tag_104\n      jump\t// in\n    tag_141:\n      swap3\n      pop\n      pop\n      dup2\n      swap1\n      sstore\n      pop\n        /* \"erc20_implement/_ERC20.sol\":1189:1192  _to */\n      dup4\n        /* \"erc20_implement/_ERC20.sol\":1168:1202  Transfer(msg.sender, _to, _amount) */\n      0xffffffffffffffffffffffffffffffffffffffff\n      and\n        /* \"erc20_implement/_ERC20.sol\":1177:1187  msg.sender */\n      caller\n        /* \"erc20_implement/_ERC20.sol\":1168:1202  Transfer(msg.sender, _to, _amount) */\n      0xffffffffffffffffffffffffffffffffffffffff\n      and\n      0xddf252ad1be2c89b69c2b068fc378daa952ba7f163c4a11628f55a4df523b3ef\n        /* \"erc20_implement/_ERC20.sol\":1194:1201  _amount */\n      dup6\n        /* \"erc20_implement/_ERC20.sol\":1168:1202  Transfer(msg.sender, _to, _amount) */\n      mload(0x40)\n      tag_142\n      swap2\n      swap1\n      tag_38\n      jump\t// in\n    tag_142:\n      mload(0x40)\n      dup1\n      swap2\n      sub\n      swap1\n      log3\n        /* \"erc20_implement/_ERC20.sol\":981:1209  function transfer(address _to, uint _amount) override external enoughTokens(msg.sender, _amount) {... */\n      pop\n      pop\n      pop\n      pop\n      jump\t// out\n        /* \"erc20_implement/_ERC20.sol\":1214:1352  function allowance(address owner, address spender) override external view returns(uint) {... */\n    tag_80:\n        /* \"erc20_implement/_ERC20.sol\":1296:1300  uint */\n      0x00\n        /* \"erc20_implement/_ERC20.sol\":1319:1329  allowances */\n      0x03\n        /* \"erc20_implement/_ERC20.sol\":1319:1336  allowances[owner] */\n      0x00\n        /* \"erc20_implement/_ERC20.sol\":1330:1335  owner */\n      dup5\n        /* \"erc20_implement/_ERC20.sol\":1319:1336  allowances[owner] */\n      0xffffffffffffffffffffffffffffffffffffffff\n      and\n      0xffffffffffffffffffffffffffffffffffffffff\n      and\n      dup2\n      mstore\n      0x20\n      add\n      swap1\n      dup2\n      mstore\n      0x20\n      add\n      0x00\n      keccak256\n        /* \"erc20_implement/_ERC20.sol\":1319:1345  allowances[owner][spender] */\n      0x00\n        /* \"erc20_implement/_ERC20.sol\":1337:1344  spender */\n      dup4\n        /* \"erc20_implement/_ERC20.sol\":1319:1345  allowances[owner][spender] */\n      0xffffffffffffffffffffffffffffffffffffffff\n      and\n      0xffffffffffffffffffffffffffffffffffffffff\n      and\n      dup2\n      mstore\n      0x20\n      add\n      swap1\n      dup2\n      mstore\n      0x20\n      add\n      0x00\n      keccak256\n      sload\n        /* \"erc20_implement/_ERC20.sol\":1312:1345  return allowances[owner][spender] */\n      swap1\n      pop\n        /* \"erc20_implement/_ERC20.sol\":1214:1352  function allowance(address owner, address spender) override external view returns(uint) {... */\n      swap3\n      swap2\n      pop\n      pop\n      jump\t// out\n        /* \"#utility.yul\":7:146   */\n    tag_145:\n        /* \"#utility.yul\":53:58   */\n      0x00\n        /* \"#utility.yul\":91:97   */\n      dup2\n        /* \"#utility.yul\":78:98   */\n      calldataload\n        /* \"#utility.yul\":69:98   */\n      swap1\n      pop\n        /* \"#utility.yul\":107:140   */\n      tag_147\n        /* \"#utility.yul\":134:139   */\n      dup2\n        /* \"#utility.yul\":107:140   */\n      tag_148\n      jump\t// in\n    tag_147:\n        /* \"#utility.yul\":7:146   */\n      swap3\n      swap2\n      pop\n      pop\n      jump\t// out\n        /* \"#utility.yul\":152:291   */\n    tag_149:\n        /* \"#utility.yul\":198:203   */\n      0x00\n        /* \"#utility.yul\":236:242   */\n      dup2\n        /* \"#utility.yul\":223:243   */\n      calldataload\n        /* \"#utility.yul\":214:243   */\n      swap1\n      pop\n        /* \"#utility.yul\":252:285   */\n      tag_151\n        /* \"#utility.yul\":279:284   */\n      dup2\n        /* \"#utility.yul\":252:285   */\n      tag_152\n      jump\t// in\n    tag_151:\n        /* \"#utility.yul\":152:291   */\n      swap3\n      swap2\n      pop\n      pop\n      jump\t// out\n        /* \"#utility.yul\":297:626   */\n    tag_60:\n        /* \"#utility.yul\":356:362   */\n      0x00\n        /* \"#utility.yul\":405:407   */\n      0x20\n        /* \"#utility.yul\":393:402   */\n      dup3\n        /* \"#utility.yul\":384:391   */\n      dup5\n        /* \"#utility.yul\":380:403   */\n      sub\n        /* \"#utility.yul\":376:408   */\n      slt\n        /* \"#utility.yul\":373:492   */\n      iszero\n      tag_154\n      jumpi\n        /* \"#utility.yul\":411:490   */\n      tag_155\n      tag_156\n      jump\t// in\n    tag_155:\n        /* \"#utility.yul\":373:492   */\n    tag_154:\n        /* \"#utility.yul\":531:532   */\n      0x00\n        /* \"#utility.yul\":556:609   */\n      tag_157\n        /* \"#utility.yul\":601:608   */\n      dup5\n        /* \"#utility.yul\":592:598   */\n      dup3\n        /* \"#utility.yul\":581:590   */\n      dup6\n        /* \"#utility.yul\":577:599   */\n      add\n        /* \"#utility.yul\":556:609   */\n      tag_145\n      jump\t// in\n    tag_157:\n        /* \"#utility.yul\":546:609   */\n      swap2\n      pop\n        /* \"#utility.yul\":502:619   */\n      pop\n        /* \"#utility.yul\":297:626   */\n      swap3\n      swap2\n      pop\n      pop\n      jump\t// out\n        /* \"#utility.yul\":632:1106   */\n    tag_79:\n        /* \"#utility.yul\":700:706   */\n      0x00\n        /* \"#utility.yul\":708:714   */\n      dup1\n        /* \"#utility.yul\":757:759   */\n      0x40\n        /* \"#utility.yul\":745:754   */\n      dup4\n        /* \"#utility.yul\":736:743   */\n      dup6\n        /* \"#utility.yul\":732:755   */\n      sub\n        /* \"#utility.yul\":728:760   */\n      slt\n        /* \"#utility.yul\":725:844   */\n      iszero\n      tag_159\n      jumpi\n        /* \"#utility.yul\":763:842   */\n      tag_160\n      tag_156\n      jump\t// in\n    tag_160:\n        /* \"#utility.yul\":725:844   */\n    tag_159:\n        /* \"#utility.yul\":883:884   */\n      0x00\n        /* \"#utility.yul\":908:961   */\n      tag_161\n        /* \"#utility.yul\":953:960   */\n      dup6\n        /* \"#utility.yul\":944:950   */\n      dup3\n        /* \"#utility.yul\":933:942   */\n      dup7\n        /* \"#utility.yul\":929:951   */\n      add\n        /* \"#utility.yul\":908:961   */\n      tag_145\n      jump\t// in\n    tag_161:\n        /* \"#utility.yul\":898:961   */\n      swap3\n      pop\n        /* \"#utility.yul\":854:971   */\n      pop\n        /* \"#utility.yul\":1010:1012   */\n      0x20\n        /* \"#utility.yul\":1036:1089   */\n      tag_162\n        /* \"#utility.yul\":1081:1088   */\n      dup6\n        /* \"#utility.yul\":1072:1078   */\n      dup3\n        /* \"#utility.yul\":1061:1070   */\n      dup7\n        /* \"#utility.yul\":1057:1079   */\n      add\n        /* \"#utility.yul\":1036:1089   */\n      tag_145\n      jump\t// in\n    tag_162:\n        /* \"#utility.yul\":1026:1089   */\n      swap2\n      pop\n        /* \"#utility.yul\":981:1099   */\n      pop\n        /* \"#utility.yul\":632:1106   */\n      swap3\n      pop\n      swap3\n      swap1\n      pop\n      jump\t// out\n        /* \"#utility.yul\":1112:1731   */\n    tag_42:\n        /* \"#utility.yul\":1189:1195   */\n      0x00\n        /* \"#utility.yul\":1197:1203   */\n      dup1\n        /* \"#utility.yul\":1205:1211   */\n      0x00\n        /* \"#utility.yul\":1254:1256   */\n      0x60\n        /* \"#utility.yul\":1242:1251   */\n      dup5\n        /* \"#utility.yul\":1233:1240   */\n      dup7\n        /* \"#utility.yul\":1229:1252   */\n      sub\n        /* \"#utility.yul\":1225:1257   */\n      slt\n        /* \"#utility.yul\":1222:1341   */\n      iszero\n      tag_164\n      jumpi\n        /* \"#utility.yul\":1260:1339   */\n      tag_165\n      tag_156\n      jump\t// in\n    tag_165:\n        /* \"#utility.yul\":1222:1341   */\n    tag_164:\n        /* \"#utility.yul\":1380:1381   */\n      0x00\n        /* \"#utility.yul\":1405:1458   */\n      tag_166\n        /* \"#utility.yul\":1450:1457   */\n      dup7\n        /* \"#utility.yul\":1441:1447   */\n      dup3\n        /* \"#utility.yul\":1430:1439   */\n      dup8\n        /* \"#utility.yul\":1426:1448   */\n      add\n        /* \"#utility.yul\":1405:1458   */\n      tag_145\n      jump\t// in\n    tag_166:\n        /* \"#utility.yul\":1395:1458   */\n      swap4\n      pop\n        /* \"#utility.yul\":1351:1468   */\n      pop\n        /* \"#utility.yul\":1507:1509   */\n      0x20\n        /* \"#utility.yul\":1533:1586   */\n      tag_167\n        /* \"#utility.yul\":1578:1585   */\n      dup7\n        /* \"#utility.yul\":1569:1575   */\n      dup3\n        /* \"#utility.yul\":1558:1567   */\n      dup8\n        /* \"#utility.yul\":1554:1576   */\n      add\n        /* \"#utility.yul\":1533:1586   */\n      tag_145\n      jump\t// in\n    tag_167:\n        /* \"#utility.yul\":1523:1586   */\n      swap3\n      pop\n        /* \"#utility.yul\":1478:1596   */\n      pop\n        /* \"#utility.yul\":1635:1637   */\n      0x40\n        /* \"#utility.yul\":1661:1714   */\n      tag_168\n        /* \"#utility.yul\":1706:1713   */\n      dup7\n        /* \"#utility.yul\":1697:1703   */\n      dup3\n        /* \"#utility.yul\":1686:1695   */\n      dup8\n        /* \"#utility.yul\":1682:1704   */\n      add\n        /* \"#utility.yul\":1661:1714   */\n      tag_149\n      jump\t// in\n    tag_168:\n        /* \"#utility.yul\":1651:1714   */\n      swap2\n      pop\n        /* \"#utility.yul\":1606:1724   */\n      pop\n        /* \"#utility.yul\":1112:1731   */\n      swap3\n      pop\n      swap3\n      pop\n      swap3\n      jump\t// out\n        /* \"#utility.yul\":1737:2211   */\n    tag_32:\n        /* \"#utility.yul\":1805:1811   */\n      0x00\n        /* \"#utility.yul\":1813:1819   */\n      dup1\n        /* \"#utility.yul\":1862:1864   */\n      0x40\n        /* \"#utility.yul\":1850:1859   */\n      dup4\n        /* \"#utility.yul\":1841:1848   */\n      dup6\n        /* \"#utility.yul\":1837:1860   */\n      sub\n        /* \"#utility.yul\":1833:1865   */\n      slt\n        /* \"#utility.yul\":1830:1949   */\n      iszero\n      tag_170\n      jumpi\n        /* \"#utility.yul\":1868:1947   */\n      tag_171\n      tag_156\n      jump\t// in\n    tag_171:\n        /* \"#utility.yul\":1830:1949   */\n    tag_170:\n        /* \"#utility.yul\":1988:1989   */\n      0x00\n        /* \"#utility.yul\":2013:2066   */\n      tag_172\n        /* \"#utility.yul\":2058:2065   */\n      dup6\n        /* \"#utility.yul\":2049:2055   */\n      dup3\n        /* \"#utility.yul\":2038:2047   */\n      dup7\n        /* \"#utility.yul\":2034:2056   */\n      add\n        /* \"#utility.yul\":2013:2066   */\n      tag_145\n      jump\t// in\n    tag_172:\n        /* \"#utility.yul\":2003:2066   */\n      swap3\n      pop\n        /* \"#utility.yul\":1959:2076   */\n      pop\n        /* \"#utility.yul\":2115:2117   */\n      0x20\n        /* \"#utility.yul\":2141:2194   */\n      tag_173\n        /* \"#utility.yul\":2186:2193   */\n      dup6\n        /* \"#utility.yul\":2177:2183   */\n      dup3\n        /* \"#utility.yul\":2166:2175   */\n      dup7\n        /* \"#utility.yul\":2162:2184   */\n      add\n        /* \"#utility.yul\":2141:2194   */\n      tag_149\n      jump\t// in\n    tag_173:\n        /* \"#utility.yul\":2131:2194   */\n      swap2\n      pop\n        /* \"#utility.yul\":2086:2204   */\n      pop\n        /* \"#utility.yul\":1737:2211   */\n      swap3\n      pop\n      swap3\n      swap1\n      pop\n      jump\t// out\n        /* \"#utility.yul\":2217:2546   */\n    tag_47:\n        /* \"#utility.yul\":2276:2282   */\n      0x00\n        /* \"#utility.yul\":2325:2327   */\n      0x20\n        /* \"#utility.yul\":2313:2322   */\n      dup3\n        /* \"#utility.yul\":2304:2311   */\n      dup5\n        /* \"#utility.yul\":2300:2323   */\n      sub\n        /* \"#utility.yul\":2296:2328   */\n      slt\n        /* \"#utility.yul\":2293:2412   */\n      iszero\n      tag_175\n      jumpi\n        /* \"#utility.yul\":2331:2410   */\n      tag_176\n      tag_156\n      jump\t// in\n    tag_176:\n        /* \"#utility.yul\":2293:2412   */\n    tag_175:\n        /* \"#utility.yul\":2451:2452   */\n      0x00\n        /* \"#utility.yul\":2476:2529   */\n      tag_177\n        /* \"#utility.yul\":2521:2528   */\n      dup5\n        /* \"#utility.yul\":2512:2518   */\n      dup3\n        /* \"#utility.yul\":2501:2510   */\n      dup6\n        /* \"#utility.yul\":2497:2519   */\n      add\n        /* \"#utility.yul\":2476:2529   */\n      tag_149\n      jump\t// in\n    tag_177:\n        /* \"#utility.yul\":2466:2529   */\n      swap2\n      pop\n        /* \"#utility.yul\":2422:2539   */\n      pop\n        /* \"#utility.yul\":2217:2546   */\n      swap3\n      swap2\n      pop\n      pop\n      jump\t// out\n        /* \"#utility.yul\":2552:2916   */\n    tag_178:\n        /* \"#utility.yul\":2640:2643   */\n      0x00\n        /* \"#utility.yul\":2668:2707   */\n      tag_180\n        /* \"#utility.yul\":2701:2706   */\n      dup3\n        /* \"#utility.yul\":2668:2707   */\n      tag_181\n      jump\t// in\n    tag_180:\n        /* \"#utility.yul\":2723:2794   */\n      tag_182\n        /* \"#utility.yul\":2787:2793   */\n      dup2\n        /* \"#utility.yul\":2782:2785   */\n      dup6\n        /* \"#utility.yul\":2723:2794   */\n      tag_183\n      jump\t// in\n    tag_182:\n        /* \"#utility.yul\":2716:2794   */\n      swap4\n      pop\n        /* \"#utility.yul\":2803:2855   */\n      tag_184\n        /* \"#utility.yul\":2848:2854   */\n      dup2\n        /* \"#utility.yul\":2843:2846   */\n      dup6\n        /* \"#utility.yul\":2836:2840   */\n      0x20\n        /* \"#utility.yul\":2829:2834   */\n      dup7\n        /* \"#utility.yul\":2825:2841   */\n      add\n        /* \"#utility.yul\":2803:2855   */\n      tag_185\n      jump\t// in\n    tag_184:\n        /* \"#utility.yul\":2880:2909   */\n      tag_186\n        /* \"#utility.yul\":2902:2908   */\n      dup2\n        /* \"#utility.yul\":2880:2909   */\n      tag_187\n      jump\t// in\n    tag_186:\n        /* \"#utility.yul\":2875:2878   */\n      dup5\n        /* \"#utility.yul\":2871:2910   */\n      add\n        /* \"#utility.yul\":2864:2910   */\n      swap2\n      pop\n        /* \"#utility.yul\":2644:2916   */\n      pop\n        /* \"#utility.yul\":2552:2916   */\n      swap3\n      swap2\n      pop\n      pop\n      jump\t// out\n        /* \"#utility.yul\":2922:3287   */\n    tag_188:\n        /* \"#utility.yul\":3064:3067   */\n      0x00\n        /* \"#utility.yul\":3085:3151   */\n      tag_190\n        /* \"#utility.yul\":3149:3150   */\n      0x07\n        /* \"#utility.yul\":3144:3147   */\n      dup4\n        /* \"#utility.yul\":3085:3151   */\n      tag_183\n      jump\t// in\n    tag_190:\n        /* \"#utility.yul\":3078:3151   */\n      swap2\n      pop\n        /* \"#utility.yul\":3160:3253   */\n      tag_191\n        /* \"#utility.yul\":3249:3252   */\n      dup3\n        /* \"#utility.yul\":3160:3253   */\n      tag_192\n      jump\t// in\n    tag_191:\n        /* \"#utility.yul\":3278:3280   */\n      0x20\n        /* \"#utility.yul\":3273:3276   */\n      dup3\n        /* \"#utility.yul\":3269:3281   */\n      add\n        /* \"#utility.yul\":3262:3281   */\n      swap1\n      pop\n        /* \"#utility.yul\":2922:3287   */\n      swap2\n      swap1\n      pop\n      jump\t// out\n        /* \"#utility.yul\":3293:3659   */\n    tag_193:\n        /* \"#utility.yul\":3435:3438   */\n      0x00\n        /* \"#utility.yul\":3456:3523   */\n      tag_195\n        /* \"#utility.yul\":3520:3522   */\n      0x11\n        /* \"#utility.yul\":3515:3518   */\n      dup4\n        /* \"#utility.yul\":3456:3523   */\n      tag_183\n      jump\t// in\n    tag_195:\n        /* \"#utility.yul\":3449:3523   */\n      swap2\n      pop\n        /* \"#utility.yul\":3532:3625   */\n      tag_196\n        /* \"#utility.yul\":3621:3624   */\n      dup3\n        /* \"#utility.yul\":3532:3625   */\n      tag_197\n      jump\t// in\n    tag_196:\n        /* \"#utility.yul\":3650:3652   */\n      0x20\n        /* \"#utility.yul\":3645:3648   */\n      dup3\n        /* \"#utility.yul\":3641:3653   */\n      add\n        /* \"#utility.yul\":3634:3653   */\n      swap1\n      pop\n        /* \"#utility.yul\":3293:3659   */\n      swap2\n      swap1\n      pop\n      jump\t// out\n        /* \"#utility.yul\":3665:4063   */\n    tag_198:\n        /* \"#utility.yul\":3824:3827   */\n      0x00\n        /* \"#utility.yul\":3845:3928   */\n      tag_200\n        /* \"#utility.yul\":3926:3927   */\n      0x00\n        /* \"#utility.yul\":3921:3924   */\n      dup4\n        /* \"#utility.yul\":3845:3928   */\n      tag_201\n      jump\t// in\n    tag_200:\n        /* \"#utility.yul\":3838:3928   */\n      swap2\n      pop\n        /* \"#utility.yul\":3937:4030   */\n      tag_202\n        /* \"#utility.yul\":4026:4029   */\n      dup3\n        /* \"#utility.yul\":3937:4030   */\n      tag_203\n      jump\t// in\n    tag_202:\n        /* \"#utility.yul\":4055:4056   */\n      0x00\n        /* \"#utility.yul\":4050:4053   */\n      dup3\n        /* \"#utility.yul\":4046:4057   */\n      add\n        /* \"#utility.yul\":4039:4057   */\n      swap1\n      pop\n        /* \"#utility.yul\":3665:4063   */\n      swap2\n      swap1\n      pop\n      jump\t// out\n        /* \"#utility.yul\":4069:4187   */\n    tag_204:\n        /* \"#utility.yul\":4156:4180   */\n      tag_206\n        /* \"#utility.yul\":4174:4179   */\n      dup2\n        /* \"#utility.yul\":4156:4180   */\n      tag_207\n      jump\t// in\n    tag_206:\n        /* \"#utility.yul\":4151:4154   */\n      dup3\n        /* \"#utility.yul\":4144:4181   */\n      mstore\n        /* \"#utility.yul\":4069:4187   */\n      pop\n      pop\n      jump\t// out\n        /* \"#utility.yul\":4193:4572   */\n    tag_109:\n        /* \"#utility.yul\":4377:4380   */\n      0x00\n        /* \"#utility.yul\":4399:4546   */\n      tag_209\n        /* \"#utility.yul\":4542:4545   */\n      dup3\n        /* \"#utility.yul\":4399:4546   */\n      tag_198\n      jump\t// in\n    tag_209:\n        /* \"#utility.yul\":4392:4546   */\n      swap2\n      pop\n        /* \"#utility.yul\":4563:4566   */\n      dup2\n        /* \"#utility.yul\":4556:4566   */\n      swap1\n      pop\n        /* \"#utility.yul\":4193:4572   */\n      swap2\n      swap1\n      pop\n      jump\t// out\n        /* \"#utility.yul\":4578:4891   */\n    tag_28:\n        /* \"#utility.yul\":4691:4695   */\n      0x00\n        /* \"#utility.yul\":4729:4731   */\n      0x20\n        /* \"#utility.yul\":4718:4727   */\n      dup3\n        /* \"#utility.yul\":4714:4732   */\n      add\n        /* \"#utility.yul\":4706:4732   */\n      swap1\n      pop\n        /* \"#utility.yul\":4778:4787   */\n      dup2\n        /* \"#utility.yul\":4772:4776   */\n      dup2\n        /* \"#utility.yul\":4768:4788   */\n      sub\n        /* \"#utility.yul\":4764:4765   */\n      0x00\n        /* \"#utility.yul\":4753:4762   */\n      dup4\n        /* \"#utility.yul\":4749:4766   */\n      add\n        /* \"#utility.yul\":4742:4789   */\n      mstore\n        /* \"#utility.yul\":4806:4884   */\n      tag_211\n        /* \"#utility.yul\":4879:4883   */\n      dup2\n        /* \"#utility.yul\":4870:4876   */\n      dup5\n        /* \"#utility.yul\":4806:4884   */\n      tag_178\n      jump\t// in\n    tag_211:\n        /* \"#utility.yul\":4798:4884   */\n      swap1\n      pop\n        /* \"#utility.yul\":4578:4891   */\n      swap3\n      swap2\n      pop\n      pop\n      jump\t// out\n        /* \"#utility.yul\":4897:5316   */\n    tag_115:\n        /* \"#utility.yul\":5063:5067   */\n      0x00\n        /* \"#utility.yul\":5101:5103   */\n      0x20\n        /* \"#utility.yul\":5090:5099   */\n      dup3\n        /* \"#utility.yul\":5086:5104   */\n      add\n        /* \"#utility.yul\":5078:5104   */\n      swap1\n      pop\n        /* \"#utility.yul\":5150:5159   */\n      dup2\n        /* \"#utility.yul\":5144:5148   */\n      dup2\n        /* \"#utility.yul\":5140:5160   */\n      sub\n        /* \"#utility.yul\":5136:5137   */\n      0x00\n        /* \"#utility.yul\":5125:5134   */\n      dup4\n        /* \"#utility.yul\":5121:5138   */\n      add\n        /* \"#utility.yul\":5114:5161   */\n      mstore\n        /* \"#utility.yul\":5178:5309   */\n      tag_213\n        /* \"#utility.yul\":5304:5308   */\n      dup2\n        /* \"#utility.yul\":5178:5309   */\n      tag_188\n      jump\t// in\n    tag_213:\n        /* \"#utility.yul\":5170:5309   */\n      swap1\n      pop\n        /* \"#utility.yul\":4897:5316   */\n      swap2\n      swap1\n      pop\n      jump\t// out\n        /* \"#utility.yul\":5322:5741   */\n    tag_98:\n        /* \"#utility.yul\":5488:5492   */\n      0x00\n        /* \"#utility.yul\":5526:5528   */\n      0x20\n        /* \"#utility.yul\":5515:5524   */\n      dup3\n        /* \"#utility.yul\":5511:5529   */\n      add\n        /* \"#utility.yul\":5503:5529   */\n      swap1\n      pop\n        /* \"#utility.yul\":5575:5584   */\n      dup2\n        /* \"#utility.yul\":5569:5573   */\n      dup2\n        /* \"#utility.yul\":5565:5585   */\n      sub\n        /* \"#utility.yul\":5561:5562   */\n      0x00\n        /* \"#utility.yul\":5550:5559   */\n      dup4\n        /* \"#utility.yul\":5546:5563   */\n      add\n        /* \"#utility.yul\":5539:5586   */\n      mstore\n        /* \"#utility.yul\":5603:5734   */\n      tag_215\n        /* \"#utility.yul\":5729:5733   */\n      dup2\n        /* \"#utility.yul\":5603:5734   */\n      tag_193\n      jump\t// in\n    tag_215:\n        /* \"#utility.yul\":5595:5734   */\n      swap1\n      pop\n        /* \"#utility.yul\":5322:5741   */\n      swap2\n      swap1\n      pop\n      jump\t// out\n        /* \"#utility.yul\":5747:5969   */\n    tag_38:\n        /* \"#utility.yul\":5840:5844   */\n      0x00\n        /* \"#utility.yul\":5878:5880   */\n      0x20\n        /* \"#utility.yul\":5867:5876   */\n      dup3\n        /* \"#utility.yul\":5863:5881   */\n      add\n        /* \"#utility.yul\":5855:5881   */\n      swap1\n      pop\n        /* \"#utility.yul\":5891:5962   */\n      tag_217\n        /* \"#utility.yul\":5959:5960   */\n      0x00\n        /* \"#utility.yul\":5948:5957   */\n      dup4\n        /* \"#utility.yul\":5944:5961   */\n      add\n        /* \"#utility.yul\":5935:5941   */\n      dup5\n        /* \"#utility.yul\":5891:5962   */\n      tag_204\n      jump\t// in\n    tag_217:\n        /* \"#utility.yul\":5747:5969   */\n      swap3\n      swap2\n      pop\n      pop\n      jump\t// out\n        /* \"#utility.yul\":6056:6155   */\n    tag_181:\n        /* \"#utility.yul\":6108:6114   */\n      0x00\n        /* \"#utility.yul\":6142:6147   */\n      dup2\n        /* \"#utility.yul\":6136:6148   */\n      mload\n        /* \"#utility.yul\":6126:6148   */\n      swap1\n      pop\n        /* \"#utility.yul\":6056:6155   */\n      swap2\n      swap1\n      pop\n      jump\t// out\n        /* \"#utility.yul\":6161:6308   */\n    tag_201:\n        /* \"#utility.yul\":6262:6273   */\n      0x00\n        /* \"#utility.yul\":6299:6302   */\n      dup2\n        /* \"#utility.yul\":6284:6302   */\n      swap1\n      pop\n        /* \"#utility.yul\":6161:6308   */\n      swap3\n      swap2\n      pop\n      pop\n      jump\t// out\n        /* \"#utility.yul\":6314:6483   */\n    tag_183:\n        /* \"#utility.yul\":6398:6409   */\n      0x00\n        /* \"#utility.yul\":6432:6438   */\n      dup3\n        /* \"#utility.yul\":6427:6430   */\n      dup3\n        /* \"#utility.yul\":6420:6439   */\n      mstore\n        /* \"#utility.yul\":6472:6476   */\n      0x20\n        /* \"#utility.yul\":6467:6470   */\n      dup3\n        /* \"#utility.yul\":6463:6477   */\n      add\n        /* \"#utility.yul\":6448:6477   */\n      swap1\n      pop\n        /* \"#utility.yul\":6314:6483   */\n      swap3\n      swap2\n      pop\n      pop\n      jump\t// out\n        /* \"#utility.yul\":6489:6794   */\n    tag_104:\n        /* \"#utility.yul\":6529:6532   */\n      0x00\n        /* \"#utility.yul\":6548:6568   */\n      tag_224\n        /* \"#utility.yul\":6566:6567   */\n      dup3\n        /* \"#utility.yul\":6548:6568   */\n      tag_207\n      jump\t// in\n    tag_224:\n        /* \"#utility.yul\":6543:6568   */\n      swap2\n      pop\n        /* \"#utility.yul\":6582:6602   */\n      tag_225\n        /* \"#utility.yul\":6600:6601   */\n      dup4\n        /* \"#utility.yul\":6582:6602   */\n      tag_207\n      jump\t// in\n    tag_225:\n        /* \"#utility.yul\":6577:6602   */\n      swap3\n      pop\n        /* \"#utility.yul\":6736:6737   */\n      dup3\n        /* \"#utility.yul\":6668:6734   */\n      0xffffffffffffffffffffffffffffffffffffffffffffffffffffffffffffffff\n        /* \"#utility.yul\":6664:6738   */\n      sub\n        /* \"#utility.yul\":6661:6662   */\n      dup3\n        /* \"#utility.yul\":6658:6739   */\n      gt\n        /* \"#utility.yul\":6655:6762   */\n      iszero\n      tag_226\n      jumpi\n        /* \"#utility.yul\":6742:6760   */\n      tag_227\n      tag_228\n      jump\t// in\n    tag_227:\n        /* \"#utility.yul\":6655:6762   */\n    tag_226:\n        /* \"#utility.yul\":6786:6787   */\n      dup3\n        /* \"#utility.yul\":6783:6784   */\n      dup3\n        /* \"#utility.yul\":6779:6788   */\n      add\n        /* \"#utility.yul\":6772:6788   */\n      swap1\n      pop\n        /* \"#utility.yul\":6489:6794   */\n      swap3\n      swap2\n      pop\n      pop\n      jump\t// out\n        /* \"#utility.yul\":6800:6991   */\n    tag_101:\n        /* \"#utility.yul\":6840:6844   */\n      0x00\n        /* \"#utility.yul\":6860:6880   */\n      tag_230\n        /* \"#utility.yul\":6878:6879   */\n      dup3\n        /* \"#utility.yul\":6860:6880   */\n      tag_207\n      jump\t// in\n    tag_230:\n        /* \"#utility.yul\":6855:6880   */\n      swap2\n      pop\n        /* \"#utility.yul\":6894:6914   */\n      tag_231\n        /* \"#utility.yul\":6912:6913   */\n      dup4\n        /* \"#utility.yul\":6894:6914   */\n      tag_207\n      jump\t// in\n    tag_231:\n        /* \"#utility.yul\":6889:6914   */\n      swap3\n      pop\n        /* \"#utility.yul\":6933:6934   */\n      dup3\n        /* \"#utility.yul\":6930:6931   */\n      dup3\n        /* \"#utility.yul\":6927:6935   */\n      lt\n        /* \"#utility.yul\":6924:6958   */\n      iszero\n      tag_232\n      jumpi\n        /* \"#utility.yul\":6938:6956   */\n      tag_233\n      tag_228\n      jump\t// in\n    tag_233:\n        /* \"#utility.yul\":6924:6958   */\n    tag_232:\n        /* \"#utility.yul\":6983:6984   */\n      dup3\n        /* \"#utility.yul\":6980:6981   */\n      dup3\n        /* \"#utility.yul\":6976:6985   */\n      sub\n        /* \"#utility.yul\":6968:6985   */\n      swap1\n      pop\n        /* \"#utility.yul\":6800:6991   */\n      swap3\n      swap2\n      pop\n      pop\n      jump\t// out\n        /* \"#utility.yul\":6997:7093   */\n    tag_234:\n        /* \"#utility.yul\":7034:7041   */\n      0x00\n        /* \"#utility.yul\":7063:7087   */\n      tag_236\n        /* \"#utility.yul\":7081:7086   */\n      dup3\n        /* \"#utility.yul\":7063:7087   */\n      tag_237\n      jump\t// in\n    tag_236:\n        /* \"#utility.yul\":7052:7087   */\n      swap1\n      pop\n        /* \"#utility.yul\":6997:7093   */\n      swap2\n      swap1\n      pop\n      jump\t// out\n        /* \"#utility.yul\":7099:7225   */\n    tag_237:\n        /* \"#utility.yul\":7136:7143   */\n      0x00\n        /* \"#utility.yul\":7176:7218   */\n      0xffffffffffffffffffffffffffffffffffffffff\n        /* \"#utility.yul\":7169:7174   */\n      dup3\n        /* \"#utility.yul\":7165:7219   */\n      and\n        /* \"#utility.yul\":7154:7219   */\n      swap1\n      pop\n        /* \"#utility.yul\":7099:7225   */\n      swap2\n      swap1\n      pop\n      jump\t// out\n        /* \"#utility.yul\":7231:7308   */\n    tag_207:\n        /* \"#utility.yul\":7268:7275   */\n      0x00\n        /* \"#utility.yul\":7297:7302   */\n      dup2\n        /* \"#utility.yul\":7286:7302   */\n      swap1\n      pop\n        /* \"#utility.yul\":7231:7308   */\n      swap2\n      swap1\n      pop\n      jump\t// out\n        /* \"#utility.yul\":7314:7621   */\n    tag_185:\n        /* \"#utility.yul\":7382:7383   */\n      0x00\n        /* \"#utility.yul\":7392:7505   */\n    tag_241:\n        /* \"#utility.yul\":7406:7412   */\n      dup4\n        /* \"#utility.yul\":7403:7404   */\n      dup2\n        /* \"#utility.yul\":7400:7413   */\n      lt\n        /* \"#utility.yul\":7392:7505   */\n      iszero\n      tag_243\n      jumpi\n        /* \"#utility.yul\":7491:7492   */\n      dup1\n        /* \"#utility.yul\":7486:7489   */\n      dup3\n        /* \"#utility.yul\":7482:7493   */\n      add\n        /* \"#utility.yul\":7476:7494   */\n      mload\n        /* \"#utility.yul\":7472:7473   */\n      dup2\n        /* \"#utility.yul\":7467:7470   */\n      dup5\n        /* \"#utility.yul\":7463:7474   */\n      add\n        /* \"#utility.yul\":7456:7495   */\n      mstore\n        /* \"#utility.yul\":7428:7430   */\n      0x20\n        /* \"#utility.yul\":7425:7426   */\n      dup2\n        /* \"#utility.yul\":7421:7431   */\n      add\n        /* \"#utility.yul\":7416:7431   */\n      swap1\n      pop\n        /* \"#utility.yul\":7392:7505   */\n      jump(tag_241)\n    tag_243:\n        /* \"#utility.yul\":7523:7529   */\n      dup4\n        /* \"#utility.yul\":7520:7521   */\n      dup2\n        /* \"#utility.yul\":7517:7530   */\n      gt\n        /* \"#utility.yul\":7514:7615   */\n      iszero\n      tag_244\n      jumpi\n        /* \"#utility.yul\":7603:7604   */\n      0x00\n        /* \"#utility.yul\":7594:7600   */\n      dup5\n        /* \"#utility.yul\":7589:7592   */\n      dup5\n        /* \"#utility.yul\":7585:7601   */\n      add\n        /* \"#utility.yul\":7578:7605   */\n      mstore\n        /* \"#utility.yul\":7514:7615   */\n    tag_244:\n        /* \"#utility.yul\":7363:7621   */\n      pop\n        /* \"#utility.yul\":7314:7621   */\n      pop\n      pop\n      pop\n      jump\t// out\n        /* \"#utility.yul\":7627:7947   */\n    tag_86:\n        /* \"#utility.yul\":7671:7677   */\n      0x00\n        /* \"#utility.yul\":7708:7709   */\n      0x02\n        /* \"#utility.yul\":7702:7706   */\n      dup3\n        /* \"#utility.yul\":7698:7710   */\n      div\n        /* \"#utility.yul\":7688:7710   */\n      swap1\n      pop\n        /* \"#utility.yul\":7755:7756   */\n      0x01\n        /* \"#utility.yul\":7749:7753   */\n      dup3\n        /* \"#utility.yul\":7745:7757   */\n      and\n        /* \"#utility.yul\":7776:7794   */\n      dup1\n        /* \"#utility.yul\":7766:7847   */\n      tag_246\n      jumpi\n        /* \"#utility.yul\":7832:7836   */\n      0x7f\n        /* \"#utility.yul\":7824:7830   */\n      dup3\n        /* \"#utility.yul\":7820:7837   */\n      and\n        /* \"#utility.yul\":7810:7837   */\n      swap2\n      pop\n        /* \"#utility.yul\":7766:7847   */\n    tag_246:\n        /* \"#utility.yul\":7894:7896   */\n      0x20\n        /* \"#utility.yul\":7886:7892   */\n      dup3\n        /* \"#utility.yul\":7883:7897   */\n      lt\n        /* \"#utility.yul\":7863:7881   */\n      dup2\n        /* \"#utility.yul\":7860:7898   */\n      eq\n        /* \"#utility.yul\":7857:7941   */\n      iszero\n      tag_247\n      jumpi\n        /* \"#utility.yul\":7913:7931   */\n      tag_248\n      tag_249\n      jump\t// in\n    tag_248:\n        /* \"#utility.yul\":7857:7941   */\n    tag_247:\n        /* \"#utility.yul\":7678:7947   */\n      pop\n        /* \"#utility.yul\":7627:7947   */\n      swap2\n      swap1\n      pop\n      jump\t// out\n        /* \"#utility.yul\":7953:8133   */\n    tag_228:\n        /* \"#utility.yul\":8001:8078   */\n      0x4e487b7100000000000000000000000000000000000000000000000000000000\n        /* \"#utility.yul\":7998:7999   */\n      0x00\n        /* \"#utility.yul\":7991:8079   */\n      mstore\n        /* \"#utility.yul\":8098:8102   */\n      0x11\n        /* \"#utility.yul\":8095:8096   */\n      0x04\n        /* \"#utility.yul\":8088:8103   */\n      mstore\n        /* \"#utility.yul\":8122:8126   */\n      0x24\n        /* \"#utility.yul\":8119:8120   */\n      0x00\n        /* \"#utility.yul\":8112:8127   */\n      revert\n        /* \"#utility.yul\":8139:8319   */\n    tag_249:\n        /* \"#utility.yul\":8187:8264   */\n      0x4e487b7100000000000000000000000000000000000000000000000000000000\n        /* \"#utility.yul\":8184:8185   */\n      0x00\n        /* \"#utility.yul\":8177:8265   */\n      mstore\n        /* \"#utility.yul\":8284:8288   */\n      0x22\n        /* \"#utility.yul\":8281:8282   */\n      0x04\n        /* \"#utility.yul\":8274:8289   */\n      mstore\n        /* \"#utility.yul\":8308:8312   */\n      0x24\n        /* \"#utility.yul\":8305:8306   */\n      0x00\n        /* \"#utility.yul\":8298:8313   */\n      revert\n        /* \"#utility.yul\":8448:8565   */\n    tag_156:\n        /* \"#utility.yul\":8557:8558   */\n      0x00\n        /* \"#utility.yul\":8554:8555   */\n      dup1\n        /* \"#utility.yul\":8547:8559   */\n      revert\n        /* \"#utility.yul\":8571:8673   */\n    tag_187:\n        /* \"#utility.yul\":8612:8618   */\n      0x00\n        /* \"#utility.yul\":8663:8665   */\n      0x1f\n        /* \"#utility.yul\":8659:8666   */\n      not\n        /* \"#utility.yul\":8654:8656   */\n      0x1f\n        /* \"#utility.yul\":8647:8652   */\n      dup4\n        /* \"#utility.yul\":8643:8657   */\n      add\n        /* \"#utility.yul\":8639:8667   */\n      and\n        /* \"#utility.yul\":8629:8667   */\n      swap1\n      pop\n        /* \"#utility.yul\":8571:8673   */\n      swap2\n      swap1\n      pop\n      jump\t// out\n        /* \"#utility.yul\":8679:8836   */\n    tag_192:\n        /* \"#utility.yul\":8819:8828   */\n      0x6661696c65642100000000000000000000000000000000000000000000000000\n        /* \"#utility.yul\":8815:8816   */\n      0x00\n        /* \"#utility.yul\":8807:8813   */\n      dup3\n        /* \"#utility.yul\":8803:8817   */\n      add\n        /* \"#utility.yul\":8796:8829   */\n      mstore\n        /* \"#utility.yul\":8679:8836   */\n      pop\n      jump\t// out\n        /* \"#utility.yul\":8842:9009   */\n    tag_197:\n        /* \"#utility.yul\":8982:9001   */\n      0x6e6f7420656e6f75676820746f6b656e73000000000000000000000000000000\n        /* \"#utility.yul\":8978:8979   */\n      0x00\n        /* \"#utility.yul\":8970:8976   */\n      dup3\n        /* \"#utility.yul\":8966:8980   */\n      add\n        /* \"#utility.yul\":8959:9002   */\n      mstore\n        /* \"#utility.yul\":8842:9009   */\n      pop\n      jump\t// out\n        /* \"#utility.yul\":9015:9129   */\n    tag_203:\n      pop\n      jump\t// out\n        /* \"#utility.yul\":9135:9257   */\n    tag_148:\n        /* \"#utility.yul\":9208:9232   */\n      tag_260\n        /* \"#utility.yul\":9226:9231   */\n      dup2\n        /* \"#utility.yul\":9208:9232   */\n      tag_234\n      jump\t// in\n    tag_260:\n        /* \"#utility.yul\":9201:9206   */\n      dup2\n        /* \"#utility.yul\":9198:9233   */\n      eq\n        /* \"#utility.yul\":9188:9251   */\n      tag_261\n      jumpi\n        /* \"#utility.yul\":9247:9248   */\n      0x00\n        /* \"#utility.yul\":9244:9245   */\n      dup1\n        /* \"#utility.yul\":9237:9249   */\n      revert\n        /* \"#utility.yul\":9188:9251   */\n    tag_261:\n        /* \"#utility.yul\":9135:9257   */\n      pop\n      jump\t// out\n        /* \"#utility.yul\":9263:9385   */\n    tag_152:\n        /* \"#utility.yul\":9336:9360   */\n      tag_263\n        /* \"#utility.yul\":9354:9359   */\n      dup2\n        /* \"#utility.yul\":9336:9360   */\n      tag_207\n      jump\t// in\n    tag_263:\n        /* \"#utility.yul\":9329:9334   */\n      dup2\n        /* \"#utility.yul\":9326:9361   */\n      eq\n        /* \"#utility.yul\":9316:9379   */\n      tag_264\n      jumpi\n        /* \"#utility.yul\":9375:9376   */\n      0x00\n        /* \"#utility.yul\":9372:9373   */\n      dup1\n        /* \"#utility.yul\":9365:9377   */\n      revert\n        /* \"#utility.yul\":9316:9379   */\n    tag_264:\n        /* \"#utility.yul\":9263:9385   */\n      pop\n      jump\t// out\n\n    auxdata: 0xa2646970667358221220c4176d4400beb508bfedc32a3ebdbb2f2e4bfcc464a57858af83da32b2ab042c64736f6c63430008070033\n}\n",
				"bytecode": {
					"linkReferences": {},
					"object": "60806040526040518060400160405280600481526020017f4368616900000000000000000000000000000000000000000000000000000000815250600490805190602001906200005192919062000208565b506040518060400160405280600381526020017f4348410000000000000000000000000000000000000000000000000000000000815250600590805190602001906200009f92919062000208565b50348015620000ad57600080fd5b506000336000806101000a81548173ffffffffffffffffffffffffffffffffffffffff021916908373ffffffffffffffffffffffffffffffffffffffff1602179055506200012260008054906101000a900473ffffffffffffffffffffffffffffffffffffffff16826200012960201b60201c565b50620003e1565b80600260008473ffffffffffffffffffffffffffffffffffffffff1673ffffffffffffffffffffffffffffffffffffffff16815260200190815260200160002060008282546200017a9190620002e6565b925050819055508060016000828254620001959190620002e6565b925050819055503373ffffffffffffffffffffffffffffffffffffffff16600073ffffffffffffffffffffffffffffffffffffffff167fddf252ad1be2c89b69c2b068fc378daa952ba7f163c4a11628f55a4df523b3ef83604051620001fc9190620002c9565b60405180910390a35050565b82805462000216906200034d565b90600052602060002090601f0160209004810192826200023a576000855562000286565b82601f106200025557805160ff191683800117855562000286565b8280016001018555821562000286579182015b828111156200028557825182559160200191906001019062000268565b5b50905062000295919062000299565b5090565b5b80821115620002b45760008160009055506001016200029a565b5090565b620002c38162000343565b82525050565b6000602082019050620002e06000830184620002b8565b92915050565b6000620002f38262000343565b9150620003008362000343565b9250827fffffffffffffffffffffffffffffffffffffffffffffffffffffffffffffffff0382111562000338576200033762000383565b5b828201905092915050565b6000819050919050565b600060028204905060018216806200036657607f821691505b602082108114156200037d576200037c620003b2565b5b50919050565b7f4e487b7100000000000000000000000000000000000000000000000000000000600052601160045260246000fd5b7f4e487b7100000000000000000000000000000000000000000000000000000000600052602260045260246000fd5b61117080620003f16000396000f3fe6080604052600436106100c65760003560e01c806340c10f191161007f5780639dc29fac116100595780639dc29fac14610264578063a9059cbb1461028d578063d0e30db0146102b6578063dd62ed3e146102c0576100d5565b806340c10f19146101d357806370a08231146101fc57806395d89b4114610239576100d5565b806306fdde03146100d7578063095ea7b31461010257806318160ddd1461012b57806323b872dd146101565780632e1a7d4d1461017f578063313ce567146101a8576100d5565b366100d5576100d36102fd565b005b005b3480156100e357600080fd5b506100ec610357565b6040516100f99190610e74565b60405180910390f35b34801561010e57600080fd5b5061012960048036038101906101249190610d41565b6103e5565b005b34801561013757600080fd5b506101406104cf565b60405161014d9190610ed6565b60405180910390f35b34801561016257600080fd5b5061017d60048036038101906101789190610cee565b6104d9565b005b34801561018b57600080fd5b506101a660048036038101906101a19190610d81565b6106d1565b005b3480156101b457600080fd5b506101bd61078b565b6040516101ca9190610ed6565b60405180910390f35b3480156101df57600080fd5b506101fa60048036038101906101f59190610d41565b610794565b005b34801561020857600080fd5b50610223600480360381019061021e9190610c81565b61086d565b6040516102309190610ed6565b60405180910390f35b34801561024557600080fd5b5061024e6108b6565b60405161025b9190610e74565b60405180910390f35b34801561027057600080fd5b5061028b60048036038101906102869190610d41565b610944565b005b34801561029957600080fd5b506102b460048036038101906102af9190610d41565b610a6c565b005b6102be6102fd565b005b3480156102cc57600080fd5b506102e760048036038101906102e29190610cae565b610bd0565b6040516102f49190610ed6565b60405180910390f35b6103073334610794565b3373ffffffffffffffffffffffffffffffffffffffff167fe1fffcc4923d04b559f4d29a8bfc6cda04eb5b0d3c460751c2402c5c5cc9109c3460405161034d9190610ed6565b60405180910390a2565b6004805461036490611011565b80601f016020809104026020016040519081016040528092919081815260200182805461039090611011565b80156103dd5780601f106103b2576101008083540402835291602001916103dd565b820191906000526020600020905b8154815290600101906020018083116103c057829003601f168201915b505050505081565b80600360003373ffffffffffffffffffffffffffffffffffffffff1673ffffffffffffffffffffffffffffffffffffffff16815260200190815260200160002060008473ffffffffffffffffffffffffffffffffffffffff1673ffffffffffffffffffffffffffffffffffffffff168152602001908152602001600020819055508173ffffffffffffffffffffffffffffffffffffffff163373ffffffffffffffffffffffffffffffffffffffff167f8c5be1e5ebec7d5bd14f71427d1e84f3dd0314c0f7b2291e5b200ac8c7c3b925836040516104c39190610ed6565b60405180910390a35050565b6000600154905090565b8281806104e58361086d565b1015610526576040517f08c379a000000000000000000000000000000000000000000000000000000000815260040161051d90610eb6565b60405180910390fd5b82600360008773ffffffffffffffffffffffffffffffffffffffff1673ffffffffffffffffffffffffffffffffffffffff16815260200190815260200160002060008673ffffffffffffffffffffffffffffffffffffffff1673ffffffffffffffffffffffffffffffffffffffff16815260200190815260200160002060008282546105b29190610f6e565b9250508190555082600260008773ffffffffffffffffffffffffffffffffffffffff1673ffffffffffffffffffffffffffffffffffffffff16815260200190815260200160002060008282546106089190610f6e565b9250508190555082600260008673ffffffffffffffffffffffffffffffffffffffff1673ffffffffffffffffffffffffffffffffffffffff168152602001908152602001600020600082825461065e9190610f18565b925050819055508373ffffffffffffffffffffffffffffffffffffffff168573ffffffffffffffffffffffffffffffffffffffff167fddf252ad1be2c89b69c2b068fc378daa952ba7f163c4a11628f55a4df523b3ef856040516106c29190610ed6565b60405180910390a35050505050565b6106db3382610944565b60003373ffffffffffffffffffffffffffffffffffffffff168260405161070190610e5f565b60006040518083038185875af1925050503d806000811461073e576040519150601f19603f3d011682016040523d82523d6000602084013e610743565b606091505b5050905080610787576040517f08c379a000000000000000000000000000000000000000000000000000000000815260040161077e90610e96565b60405180910390fd5b5050565b60006012905090565b80600260008473ffffffffffffffffffffffffffffffffffffffff1673ffffffffffffffffffffffffffffffffffffffff16815260200190815260200160002060008282546107e39190610f18565b9250508190555080600160008282546107fc9190610f18565b925050819055503373ffffffffffffffffffffffffffffffffffffffff16600073ffffffffffffffffffffffffffffffffffffffff167fddf252ad1be2c89b69c2b068fc378daa952ba7f163c4a11628f55a4df523b3ef836040516108619190610ed6565b60405180910390a35050565b6000600260008373ffffffffffffffffffffffffffffffffffffffff1673ffffffffffffffffffffffffffffffffffffffff168152602001908152602001600020549050919050565b600580546108c390611011565b80601f01602080910402602001604051908101604052809291908181526020018280546108ef90611011565b801561093c5780601f106109115761010080835404028352916020019161093c565b820191906000526020600020905b81548152906001019060200180831161091f57829003601f168201915b505050505081565b3381806109508361086d565b1015610991576040517f08c379a000000000000000000000000000000000000000000000000000000000815260040161098890610eb6565b60405180910390fd5b82600260008673ffffffffffffffffffffffffffffffffffffffff1673ffffffffffffffffffffffffffffffffffffffff16815260200190815260200160002060008282546109e09190610f6e565b9250508190555082600160008282546109f99190610f6e565b92505081905550600073ffffffffffffffffffffffffffffffffffffffff163373ffffffffffffffffffffffffffffffffffffffff167fddf252ad1be2c89b69c2b068fc378daa952ba7f163c4a11628f55a4df523b3ef85604051610a5e9190610ed6565b60405180910390a350505050565b338180610a788361086d565b1015610ab9576040517f08c379a0000000000000000000000000000000000000000000000000000000008152600401610ab090610eb6565b60405180910390fd5b82600260003373ffffffffffffffffffffffffffffffffffffffff1673ffffffffffffffffffffffffffffffffffffffff1681526020019081526020016000206000828254610b089190610f6e565b9250508190555082600260008673ffffffffffffffffffffffffffffffffffffffff1673ffffffffffffffffffffffffffffffffffffffff1681526020019081526020016000206000828254610b5e9190610f18565b925050819055508373ffffffffffffffffffffffffffffffffffffffff163373ffffffffffffffffffffffffffffffffffffffff167fddf252ad1be2c89b69c2b068fc378daa952ba7f163c4a11628f55a4df523b3ef85604051610bc29190610ed6565b60405180910390a350505050565b6000600360008473ffffffffffffffffffffffffffffffffffffffff1673ffffffffffffffffffffffffffffffffffffffff16815260200190815260200160002060008373ffffffffffffffffffffffffffffffffffffffff1673ffffffffffffffffffffffffffffffffffffffff16815260200190815260200160002054905092915050565b600081359050610c668161110c565b92915050565b600081359050610c7b81611123565b92915050565b600060208284031215610c9757610c966110a1565b5b6000610ca584828501610c57565b91505092915050565b60008060408385031215610cc557610cc46110a1565b5b6000610cd385828601610c57565b9250506020610ce485828601610c57565b9150509250929050565b600080600060608486031215610d0757610d066110a1565b5b6000610d1586828701610c57565b9350506020610d2686828701610c57565b9250506040610d3786828701610c6c565b9150509250925092565b60008060408385031215610d5857610d576110a1565b5b6000610d6685828601610c57565b9250506020610d7785828601610c6c565b9150509250929050565b600060208284031215610d9757610d966110a1565b5b6000610da584828501610c6c565b91505092915050565b6000610db982610ef1565b610dc38185610f07565b9350610dd3818560208601610fde565b610ddc816110a6565b840191505092915050565b6000610df4600783610f07565b9150610dff826110b7565b602082019050919050565b6000610e17601183610f07565b9150610e22826110e0565b602082019050919050565b6000610e3a600083610efc565b9150610e4582611109565b600082019050919050565b610e5981610fd4565b82525050565b6000610e6a82610e2d565b9150819050919050565b60006020820190508181036000830152610e8e8184610dae565b905092915050565b60006020820190508181036000830152610eaf81610de7565b9050919050565b60006020820190508181036000830152610ecf81610e0a565b9050919050565b6000602082019050610eeb6000830184610e50565b92915050565b600081519050919050565b600081905092915050565b600082825260208201905092915050565b6000610f2382610fd4565b9150610f2e83610fd4565b9250827fffffffffffffffffffffffffffffffffffffffffffffffffffffffffffffffff03821115610f6357610f62611043565b5b828201905092915050565b6000610f7982610fd4565b9150610f8483610fd4565b925082821015610f9757610f96611043565b5b828203905092915050565b6000610fad82610fb4565b9050919050565b600073ffffffffffffffffffffffffffffffffffffffff82169050919050565b6000819050919050565b60005b83811015610ffc578082015181840152602081019050610fe1565b8381111561100b576000848401525b50505050565b6000600282049050600182168061102957607f821691505b6020821081141561103d5761103c611072565b5b50919050565b7f4e487b7100000000000000000000000000000000000000000000000000000000600052601160045260246000fd5b7f4e487b7100000000000000000000000000000000000000000000000000000000600052602260045260246000fd5b600080fd5b6000601f19601f8301169050919050565b7f6661696c65642100000000000000000000000000000000000000000000000000600082015250565b7f6e6f7420656e6f75676820746f6b656e73000000000000000000000000000000600082015250565b50565b61111581610fa2565b811461112057600080fd5b50565b61112c81610fd4565b811461113757600080fd5b5056fea2646970667358221220c4176d4400beb508bfedc32a3ebdbb2f2e4bfcc464a57858af83da32b2ab042c64736f6c63430008070033",
					"opcodes": "PUSH1 0x80 PUSH1 0x40 MSTORE PUSH1 0x40 MLOAD DUP1 PUSH1 0x40 ADD PUSH1 0x40 MSTORE DUP1 PUSH1 0x4 DUP2 MSTORE PUSH1 0x20 ADD PUSH32 0x4368616900000000000000000000000000000000000000000000000000000000 DUP2 MSTORE POP PUSH1 0x4 SWAP1 DUP1 MLOAD SWAP1 PUSH1 0x20 ADD SWAP1 PUSH3 0x51 SWAP3 SWAP2 SWAP1 PUSH3 0x208 JUMP JUMPDEST POP PUSH1 0x40 MLOAD DUP1 PUSH1 0x40 ADD PUSH1 0x40 MSTORE DUP1 PUSH1 0x3 DUP2 MSTORE PUSH1 0x20 ADD PUSH32 0x4348410000000000000000000000000000000000000000000000000000000000 DUP2 MSTORE POP PUSH1 0x5 SWAP1 DUP1 MLOAD SWAP1 PUSH1 0x20 ADD SWAP1 PUSH3 0x9F SWAP3 SWAP2 SWAP1 PUSH3 0x208 JUMP JUMPDEST POP CALLVALUE DUP1 ISZERO PUSH3 0xAD JUMPI PUSH1 0x0 DUP1 REVERT JUMPDEST POP PUSH1 0x0 CALLER PUSH1 0x0 DUP1 PUSH2 0x100 EXP DUP2 SLOAD DUP2 PUSH20 0xFFFFFFFFFFFFFFFFFFFFFFFFFFFFFFFFFFFFFFFF MUL NOT AND SWAP1 DUP4 PUSH20 0xFFFFFFFFFFFFFFFFFFFFFFFFFFFFFFFFFFFFFFFF AND MUL OR SWAP1 SSTORE POP PUSH3 0x122 PUSH1 0x0 DUP1 SLOAD SWAP1 PUSH2 0x100 EXP SWAP1 DIV PUSH20 0xFFFFFFFFFFFFFFFFFFFFFFFFFFFFFFFFFFFFFFFF AND DUP3 PUSH3 0x129 PUSH1 0x20 SHL PUSH1 0x20 SHR JUMP JUMPDEST POP PUSH3 0x3E1 JUMP JUMPDEST DUP1 PUSH1 0x2 PUSH1 0x0 DUP5 PUSH20 0xFFFFFFFFFFFFFFFFFFFFFFFFFFFFFFFFFFFFFFFF AND PUSH20 0xFFFFFFFFFFFFFFFFFFFFFFFFFFFFFFFFFFFFFFFF AND DUP2 MSTORE PUSH1 0x20 ADD SWAP1 DUP2 MSTORE PUSH1 0x20 ADD PUSH1 0x0 KECCAK256 PUSH1 0x0 DUP3 DUP3 SLOAD PUSH3 0x17A SWAP2 SWAP1 PUSH3 0x2E6 JUMP JUMPDEST SWAP3 POP POP DUP2 SWAP1 SSTORE POP DUP1 PUSH1 0x1 PUSH1 0x0 DUP3 DUP3 SLOAD PUSH3 0x195 SWAP2 SWAP1 PUSH3 0x2E6 JUMP JUMPDEST SWAP3 POP POP DUP2 SWAP1 SSTORE POP CALLER PUSH20 0xFFFFFFFFFFFFFFFFFFFFFFFFFFFFFFFFFFFFFFFF AND PUSH1 0x0 PUSH20 0xFFFFFFFFFFFFFFFFFFFFFFFFFFFFFFFFFFFFFFFF AND PUSH32 0xDDF252AD1BE2C89B69C2B068FC378DAA952BA7F163C4A11628F55A4DF523B3EF DUP4 PUSH1 0x40 MLOAD PUSH3 0x1FC SWAP2 SWAP1 PUSH3 0x2C9 JUMP JUMPDEST PUSH1 0x40 MLOAD DUP1 SWAP2 SUB SWAP1 LOG3 POP POP JUMP JUMPDEST DUP3 DUP1 SLOAD PUSH3 0x216 SWAP1 PUSH3 0x34D JUMP JUMPDEST SWAP1 PUSH1 0x0 MSTORE PUSH1 0x20 PUSH1 0x0 KECCAK256 SWAP1 PUSH1 0x1F ADD PUSH1 0x20 SWAP1 DIV DUP2 ADD SWAP3 DUP3 PUSH3 0x23A JUMPI PUSH1 0x0 DUP6 SSTORE PUSH3 0x286 JUMP JUMPDEST DUP3 PUSH1 0x1F LT PUSH3 0x255 JUMPI DUP1 MLOAD PUSH1 0xFF NOT AND DUP4 DUP1 ADD OR DUP6 SSTORE PUSH3 0x286 JUMP JUMPDEST DUP3 DUP1 ADD PUSH1 0x1 ADD DUP6 SSTORE DUP3 ISZERO PUSH3 0x286 JUMPI SWAP2 DUP3 ADD JUMPDEST DUP3 DUP2 GT ISZERO PUSH3 0x285 JUMPI DUP3 MLOAD DUP3 SSTORE SWAP2 PUSH1 0x20 ADD SWAP2 SWAP1 PUSH1 0x1 ADD SWAP1 PUSH3 0x268 JUMP JUMPDEST JUMPDEST POP SWAP1 POP PUSH3 0x295 SWAP2 SWAP1 PUSH3 0x299 JUMP JUMPDEST POP SWAP1 JUMP JUMPDEST JUMPDEST DUP1 DUP3 GT ISZERO PUSH3 0x2B4 JUMPI PUSH1 0x0 DUP2 PUSH1 0x0 SWAP1 SSTORE POP PUSH1 0x1 ADD PUSH3 0x29A JUMP JUMPDEST POP SWAP1 JUMP JUMPDEST PUSH3 0x2C3 DUP2 PUSH3 0x343 JUMP JUMPDEST DUP3 MSTORE POP POP JUMP JUMPDEST PUSH1 0x0 PUSH1 0x20 DUP3 ADD SWAP1 POP PUSH3 0x2E0 PUSH1 0x0 DUP4 ADD DUP5 PUSH3 0x2B8 JUMP JUMPDEST SWAP3 SWAP2 POP POP JUMP JUMPDEST PUSH1 0x0 PUSH3 0x2F3 DUP3 PUSH3 0x343 JUMP JUMPDEST SWAP2 POP PUSH3 0x300 DUP4 PUSH3 0x343 JUMP JUMPDEST SWAP3 POP DUP3 PUSH32 0xFFFFFFFFFFFFFFFFFFFFFFFFFFFFFFFFFFFFFFFFFFFFFFFFFFFFFFFFFFFFFFFF SUB DUP3 GT ISZERO PUSH3 0x338 JUMPI PUSH3 0x337 PUSH3 0x383 JUMP JUMPDEST JUMPDEST DUP3 DUP3 ADD SWAP1 POP SWAP3 SWAP2 POP POP JUMP JUMPDEST PUSH1 0x0 DUP2 SWAP1 POP SWAP2 SWAP1 POP JUMP JUMPDEST PUSH1 0x0 PUSH1 0x2 DUP3 DIV SWAP1 POP PUSH1 0x1 DUP3 AND DUP1 PUSH3 0x366 JUMPI PUSH1 0x7F DUP3 AND SWAP2 POP JUMPDEST PUSH1 0x20 DUP3 LT DUP2 EQ ISZERO PUSH3 0x37D JUMPI PUSH3 0x37C PUSH3 0x3B2 JUMP JUMPDEST JUMPDEST POP SWAP2 SWAP1 POP JUMP JUMPDEST PUSH32 0x4E487B7100000000000000000000000000000000000000000000000000000000 PUSH1 0x0 MSTORE PUSH1 0x11 PUSH1 0x4 MSTORE PUSH1 0x24 PUSH1 0x0 REVERT JUMPDEST PUSH32 0x4E487B7100000000000000000000000000000000000000000000000000000000 PUSH1 0x0 MSTORE PUSH1 0x22 PUSH1 0x4 MSTORE PUSH1 0x24 PUSH1 0x0 REVERT JUMPDEST PUSH2 0x1170 DUP1 PUSH3 0x3F1 PUSH1 0x0 CODECOPY PUSH1 0x0 RETURN INVALID PUSH1 0x80 PUSH1 0x40 MSTORE PUSH1 0x4 CALLDATASIZE LT PUSH2 0xC6 JUMPI PUSH1 0x0 CALLDATALOAD PUSH1 0xE0 SHR DUP1 PUSH4 0x40C10F19 GT PUSH2 0x7F JUMPI DUP1 PUSH4 0x9DC29FAC GT PUSH2 0x59 JUMPI DUP1 PUSH4 0x9DC29FAC EQ PUSH2 0x264 JUMPI DUP1 PUSH4 0xA9059CBB EQ PUSH2 0x28D JUMPI DUP1 PUSH4 0xD0E30DB0 EQ PUSH2 0x2B6 JUMPI DUP1 PUSH4 0xDD62ED3E EQ PUSH2 0x2C0 JUMPI PUSH2 0xD5 JUMP JUMPDEST DUP1 PUSH4 0x40C10F19 EQ PUSH2 0x1D3 JUMPI DUP1 PUSH4 0x70A08231 EQ PUSH2 0x1FC JUMPI DUP1 PUSH4 0x95D89B41 EQ PUSH2 0x239 JUMPI PUSH2 0xD5 JUMP JUMPDEST DUP1 PUSH4 0x6FDDE03 EQ PUSH2 0xD7 JUMPI DUP1 PUSH4 0x95EA7B3 EQ PUSH2 0x102 JUMPI DUP1 PUSH4 0x18160DDD EQ PUSH2 0x12B JUMPI DUP1 PUSH4 0x23B872DD EQ PUSH2 0x156 JUMPI DUP1 PUSH4 0x2E1A7D4D EQ PUSH2 0x17F JUMPI DUP1 PUSH4 0x313CE567 EQ PUSH2 0x1A8 JUMPI PUSH2 0xD5 JUMP JUMPDEST CALLDATASIZE PUSH2 0xD5 JUMPI PUSH2 0xD3 PUSH2 0x2FD JUMP JUMPDEST STOP JUMPDEST STOP JUMPDEST CALLVALUE DUP1 ISZERO PUSH2 0xE3 JUMPI PUSH1 0x0 DUP1 REVERT JUMPDEST POP PUSH2 0xEC PUSH2 0x357 JUMP JUMPDEST PUSH1 0x40 MLOAD PUSH2 0xF9 SWAP2 SWAP1 PUSH2 0xE74 JUMP JUMPDEST PUSH1 0x40 MLOAD DUP1 SWAP2 SUB SWAP1 RETURN JUMPDEST CALLVALUE DUP1 ISZERO PUSH2 0x10E JUMPI PUSH1 0x0 DUP1 REVERT JUMPDEST POP PUSH2 0x129 PUSH1 0x4 DUP1 CALLDATASIZE SUB DUP2 ADD SWAP1 PUSH2 0x124 SWAP2 SWAP1 PUSH2 0xD41 JUMP JUMPDEST PUSH2 0x3E5 JUMP JUMPDEST STOP JUMPDEST CALLVALUE DUP1 ISZERO PUSH2 0x137 JUMPI PUSH1 0x0 DUP1 REVERT JUMPDEST POP PUSH2 0x140 PUSH2 0x4CF JUMP JUMPDEST PUSH1 0x40 MLOAD PUSH2 0x14D SWAP2 SWAP1 PUSH2 0xED6 JUMP JUMPDEST PUSH1 0x40 MLOAD DUP1 SWAP2 SUB SWAP1 RETURN JUMPDEST CALLVALUE DUP1 ISZERO PUSH2 0x162 JUMPI PUSH1 0x0 DUP1 REVERT JUMPDEST POP PUSH2 0x17D PUSH1 0x4 DUP1 CALLDATASIZE SUB DUP2 ADD SWAP1 PUSH2 0x178 SWAP2 SWAP1 PUSH2 0xCEE JUMP JUMPDEST PUSH2 0x4D9 JUMP JUMPDEST STOP JUMPDEST CALLVALUE DUP1 ISZERO PUSH2 0x18B JUMPI PUSH1 0x0 DUP1 REVERT JUMPDEST POP PUSH2 0x1A6 PUSH1 0x4 DUP1 CALLDATASIZE SUB DUP2 ADD SWAP1 PUSH2 0x1A1 SWAP2 SWAP1 PUSH2 0xD81 JUMP JUMPDEST PUSH2 0x6D1 JUMP JUMPDEST STOP JUMPDEST CALLVALUE DUP1 ISZERO PUSH2 0x1B4 JUMPI PUSH1 0x0 DUP1 REVERT JUMPDEST POP PUSH2 0x1BD PUSH2 0x78B JUMP JUMPDEST PUSH1 0x40 MLOAD PUSH2 0x1CA SWAP2 SWAP1 PUSH2 0xED6 JUMP JUMPDEST PUSH1 0x40 MLOAD DUP1 SWAP2 SUB SWAP1 RETURN JUMPDEST CALLVALUE DUP1 ISZERO PUSH2 0x1DF JUMPI PUSH1 0x0 DUP1 REVERT JUMPDEST POP PUSH2 0x1FA PUSH1 0x4 DUP1 CALLDATASIZE SUB DUP2 ADD SWAP1 PUSH2 0x1F5 SWAP2 SWAP1 PUSH2 0xD41 JUMP JUMPDEST PUSH2 0x794 JUMP JUMPDEST STOP JUMPDEST CALLVALUE DUP1 ISZERO PUSH2 0x208 JUMPI PUSH1 0x0 DUP1 REVERT JUMPDEST POP PUSH2 0x223 PUSH1 0x4 DUP1 CALLDATASIZE SUB DUP2 ADD SWAP1 PUSH2 0x21E SWAP2 SWAP1 PUSH2 0xC81 JUMP JUMPDEST PUSH2 0x86D JUMP JUMPDEST PUSH1 0x40 MLOAD PUSH2 0x230 SWAP2 SWAP1 PUSH2 0xED6 JUMP JUMPDEST PUSH1 0x40 MLOAD DUP1 SWAP2 SUB SWAP1 RETURN JUMPDEST CALLVALUE DUP1 ISZERO PUSH2 0x245 JUMPI PUSH1 0x0 DUP1 REVERT JUMPDEST POP PUSH2 0x24E PUSH2 0x8B6 JUMP JUMPDEST PUSH1 0x40 MLOAD PUSH2 0x25B SWAP2 SWAP1 PUSH2 0xE74 JUMP JUMPDEST PUSH1 0x40 MLOAD DUP1 SWAP2 SUB SWAP1 RETURN JUMPDEST CALLVALUE DUP1 ISZERO PUSH2 0x270 JUMPI PUSH1 0x0 DUP1 REVERT JUMPDEST POP PUSH2 0x28B PUSH1 0x4 DUP1 CALLDATASIZE SUB DUP2 ADD SWAP1 PUSH2 0x286 SWAP2 SWAP1 PUSH2 0xD41 JUMP JUMPDEST PUSH2 0x944 JUMP JUMPDEST STOP JUMPDEST CALLVALUE DUP1 ISZERO PUSH2 0x299 JUMPI PUSH1 0x0 DUP1 REVERT JUMPDEST POP PUSH2 0x2B4 PUSH1 0x4 DUP1 CALLDATASIZE SUB DUP2 ADD SWAP1 PUSH2 0x2AF SWAP2 SWAP1 PUSH2 0xD41 JUMP JUMPDEST PUSH2 0xA6C JUMP JUMPDEST STOP JUMPDEST PUSH2 0x2BE PUSH2 0x2FD JUMP JUMPDEST STOP JUMPDEST CALLVALUE DUP1 ISZERO PUSH2 0x2CC JUMPI PUSH1 0x0 DUP1 REVERT JUMPDEST POP PUSH2 0x2E7 PUSH1 0x4 DUP1 CALLDATASIZE SUB DUP2 ADD SWAP1 PUSH2 0x2E2 SWAP2 SWAP1 PUSH2 0xCAE JUMP JUMPDEST PUSH2 0xBD0 JUMP JUMPDEST PUSH1 0x40 MLOAD PUSH2 0x2F4 SWAP2 SWAP1 PUSH2 0xED6 JUMP JUMPDEST PUSH1 0x40 MLOAD DUP1 SWAP2 SUB SWAP1 RETURN JUMPDEST PUSH2 0x307 CALLER CALLVALUE PUSH2 0x794 JUMP JUMPDEST CALLER PUSH20 0xFFFFFFFFFFFFFFFFFFFFFFFFFFFFFFFFFFFFFFFF AND PUSH32 0xE1FFFCC4923D04B559F4D29A8BFC6CDA04EB5B0D3C460751C2402C5C5CC9109C CALLVALUE PUSH1 0x40 MLOAD PUSH2 0x34D SWAP2 SWAP1 PUSH2 0xED6 JUMP JUMPDEST PUSH1 0x40 MLOAD DUP1 SWAP2 SUB SWAP1 LOG2 JUMP JUMPDEST PUSH1 0x4 DUP1 SLOAD PUSH2 0x364 SWAP1 PUSH2 0x1011 JUMP JUMPDEST DUP1 PUSH1 0x1F ADD PUSH1 0x20 DUP1 SWAP2 DIV MUL PUSH1 0x20 ADD PUSH1 0x40 MLOAD SWAP1 DUP2 ADD PUSH1 0x40 MSTORE DUP1 SWAP3 SWAP2 SWAP1 DUP2 DUP2 MSTORE PUSH1 0x20 ADD DUP3 DUP1 SLOAD PUSH2 0x390 SWAP1 PUSH2 0x1011 JUMP JUMPDEST DUP1 ISZERO PUSH2 0x3DD JUMPI DUP1 PUSH1 0x1F LT PUSH2 0x3B2 JUMPI PUSH2 0x100 DUP1 DUP4 SLOAD DIV MUL DUP4 MSTORE SWAP2 PUSH1 0x20 ADD SWAP2 PUSH2 0x3DD JUMP JUMPDEST DUP3 ADD SWAP2 SWAP1 PUSH1 0x0 MSTORE PUSH1 0x20 PUSH1 0x0 KECCAK256 SWAP1 JUMPDEST DUP2 SLOAD DUP2 MSTORE SWAP1 PUSH1 0x1 ADD SWAP1 PUSH1 0x20 ADD DUP1 DUP4 GT PUSH2 0x3C0 JUMPI DUP3 SWAP1 SUB PUSH1 0x1F AND DUP3 ADD SWAP2 JUMPDEST POP POP POP POP POP DUP2 JUMP JUMPDEST DUP1 PUSH1 0x3 PUSH1 0x0 CALLER PUSH20 0xFFFFFFFFFFFFFFFFFFFFFFFFFFFFFFFFFFFFFFFF AND PUSH20 0xFFFFFFFFFFFFFFFFFFFFFFFFFFFFFFFFFFFFFFFF AND DUP2 MSTORE PUSH1 0x20 ADD SWAP1 DUP2 MSTORE PUSH1 0x20 ADD PUSH1 0x0 KECCAK256 PUSH1 0x0 DUP5 PUSH20 0xFFFFFFFFFFFFFFFFFFFFFFFFFFFFFFFFFFFFFFFF AND PUSH20 0xFFFFFFFFFFFFFFFFFFFFFFFFFFFFFFFFFFFFFFFF AND DUP2 MSTORE PUSH1 0x20 ADD SWAP1 DUP2 MSTORE PUSH1 0x20 ADD PUSH1 0x0 KECCAK256 DUP2 SWAP1 SSTORE POP DUP2 PUSH20 0xFFFFFFFFFFFFFFFFFFFFFFFFFFFFFFFFFFFFFFFF AND CALLER PUSH20 0xFFFFFFFFFFFFFFFFFFFFFFFFFFFFFFFFFFFFFFFF AND PUSH32 0x8C5BE1E5EBEC7D5BD14F71427D1E84F3DD0314C0F7B2291E5B200AC8C7C3B925 DUP4 PUSH1 0x40 MLOAD PUSH2 0x4C3 SWAP2 SWAP1 PUSH2 0xED6 JUMP JUMPDEST PUSH1 0x40 MLOAD DUP1 SWAP2 SUB SWAP1 LOG3 POP POP JUMP JUMPDEST PUSH1 0x0 PUSH1 0x1 SLOAD SWAP1 POP SWAP1 JUMP JUMPDEST DUP3 DUP2 DUP1 PUSH2 0x4E5 DUP4 PUSH2 0x86D JUMP JUMPDEST LT ISZERO PUSH2 0x526 JUMPI PUSH1 0x40 MLOAD PUSH32 0x8C379A000000000000000000000000000000000000000000000000000000000 DUP2 MSTORE PUSH1 0x4 ADD PUSH2 0x51D SWAP1 PUSH2 0xEB6 JUMP JUMPDEST PUSH1 0x40 MLOAD DUP1 SWAP2 SUB SWAP1 REVERT JUMPDEST DUP3 PUSH1 0x3 PUSH1 0x0 DUP8 PUSH20 0xFFFFFFFFFFFFFFFFFFFFFFFFFFFFFFFFFFFFFFFF AND PUSH20 0xFFFFFFFFFFFFFFFFFFFFFFFFFFFFFFFFFFFFFFFF AND DUP2 MSTORE PUSH1 0x20 ADD SWAP1 DUP2 MSTORE PUSH1 0x20 ADD PUSH1 0x0 KECCAK256 PUSH1 0x0 DUP7 PUSH20 0xFFFFFFFFFFFFFFFFFFFFFFFFFFFFFFFFFFFFFFFF AND PUSH20 0xFFFFFFFFFFFFFFFFFFFFFFFFFFFFFFFFFFFFFFFF AND DUP2 MSTORE PUSH1 0x20 ADD SWAP1 DUP2 MSTORE PUSH1 0x20 ADD PUSH1 0x0 KECCAK256 PUSH1 0x0 DUP3 DUP3 SLOAD PUSH2 0x5B2 SWAP2 SWAP1 PUSH2 0xF6E JUMP JUMPDEST SWAP3 POP POP DUP2 SWAP1 SSTORE POP DUP3 PUSH1 0x2 PUSH1 0x0 DUP8 PUSH20 0xFFFFFFFFFFFFFFFFFFFFFFFFFFFFFFFFFFFFFFFF AND PUSH20 0xFFFFFFFFFFFFFFFFFFFFFFFFFFFFFFFFFFFFFFFF AND DUP2 MSTORE PUSH1 0x20 ADD SWAP1 DUP2 MSTORE PUSH1 0x20 ADD PUSH1 0x0 KECCAK256 PUSH1 0x0 DUP3 DUP3 SLOAD PUSH2 0x608 SWAP2 SWAP1 PUSH2 0xF6E JUMP JUMPDEST SWAP3 POP POP DUP2 SWAP1 SSTORE POP DUP3 PUSH1 0x2 PUSH1 0x0 DUP7 PUSH20 0xFFFFFFFFFFFFFFFFFFFFFFFFFFFFFFFFFFFFFFFF AND PUSH20 0xFFFFFFFFFFFFFFFFFFFFFFFFFFFFFFFFFFFFFFFF AND DUP2 MSTORE PUSH1 0x20 ADD SWAP1 DUP2 MSTORE PUSH1 0x20 ADD PUSH1 0x0 KECCAK256 PUSH1 0x0 DUP3 DUP3 SLOAD PUSH2 0x65E SWAP2 SWAP1 PUSH2 0xF18 JUMP JUMPDEST SWAP3 POP POP DUP2 SWAP1 SSTORE POP DUP4 PUSH20 0xFFFFFFFFFFFFFFFFFFFFFFFFFFFFFFFFFFFFFFFF AND DUP6 PUSH20 0xFFFFFFFFFFFFFFFFFFFFFFFFFFFFFFFFFFFFFFFF AND PUSH32 0xDDF252AD1BE2C89B69C2B068FC378DAA952BA7F163C4A11628F55A4DF523B3EF DUP6 PUSH1 0x40 MLOAD PUSH2 0x6C2 SWAP2 SWAP1 PUSH2 0xED6 JUMP JUMPDEST PUSH1 0x40 MLOAD DUP1 SWAP2 SUB SWAP1 LOG3 POP POP POP POP POP JUMP JUMPDEST PUSH2 0x6DB CALLER DUP3 PUSH2 0x944 JUMP JUMPDEST PUSH1 0x0 CALLER PUSH20 0xFFFFFFFFFFFFFFFFFFFFFFFFFFFFFFFFFFFFFFFF AND DUP3 PUSH1 0x40 MLOAD PUSH2 0x701 SWAP1 PUSH2 0xE5F JUMP JUMPDEST PUSH1 0x0 PUSH1 0x40 MLOAD DUP1 DUP4 SUB DUP2 DUP6 DUP8 GAS CALL SWAP3 POP POP POP RETURNDATASIZE DUP1 PUSH1 0x0 DUP2 EQ PUSH2 0x73E JUMPI PUSH1 0x40 MLOAD SWAP2 POP PUSH1 0x1F NOT PUSH1 0x3F RETURNDATASIZE ADD AND DUP3 ADD PUSH1 0x40 MSTORE RETURNDATASIZE DUP3 MSTORE RETURNDATASIZE PUSH1 0x0 PUSH1 0x20 DUP5 ADD RETURNDATACOPY PUSH2 0x743 JUMP JUMPDEST PUSH1 0x60 SWAP2 POP JUMPDEST POP POP SWAP1 POP DUP1 PUSH2 0x787 JUMPI PUSH1 0x40 MLOAD PUSH32 0x8C379A000000000000000000000000000000000000000000000000000000000 DUP2 MSTORE PUSH1 0x4 ADD PUSH2 0x77E SWAP1 PUSH2 0xE96 JUMP JUMPDEST PUSH1 0x40 MLOAD DUP1 SWAP2 SUB SWAP1 REVERT JUMPDEST POP POP JUMP JUMPDEST PUSH1 0x0 PUSH1 0x12 SWAP1 POP SWAP1 JUMP JUMPDEST DUP1 PUSH1 0x2 PUSH1 0x0 DUP5 PUSH20 0xFFFFFFFFFFFFFFFFFFFFFFFFFFFFFFFFFFFFFFFF AND PUSH20 0xFFFFFFFFFFFFFFFFFFFFFFFFFFFFFFFFFFFFFFFF AND DUP2 MSTORE PUSH1 0x20 ADD SWAP1 DUP2 MSTORE PUSH1 0x20 ADD PUSH1 0x0 KECCAK256 PUSH1 0x0 DUP3 DUP3 SLOAD PUSH2 0x7E3 SWAP2 SWAP1 PUSH2 0xF18 JUMP JUMPDEST SWAP3 POP POP DUP2 SWAP1 SSTORE POP DUP1 PUSH1 0x1 PUSH1 0x0 DUP3 DUP3 SLOAD PUSH2 0x7FC SWAP2 SWAP1 PUSH2 0xF18 JUMP JUMPDEST SWAP3 POP POP DUP2 SWAP1 SSTORE POP CALLER PUSH20 0xFFFFFFFFFFFFFFFFFFFFFFFFFFFFFFFFFFFFFFFF AND PUSH1 0x0 PUSH20 0xFFFFFFFFFFFFFFFFFFFFFFFFFFFFFFFFFFFFFFFF AND PUSH32 0xDDF252AD1BE2C89B69C2B068FC378DAA952BA7F163C4A11628F55A4DF523B3EF DUP4 PUSH1 0x40 MLOAD PUSH2 0x861 SWAP2 SWAP1 PUSH2 0xED6 JUMP JUMPDEST PUSH1 0x40 MLOAD DUP1 SWAP2 SUB SWAP1 LOG3 POP POP JUMP JUMPDEST PUSH1 0x0 PUSH1 0x2 PUSH1 0x0 DUP4 PUSH20 0xFFFFFFFFFFFFFFFFFFFFFFFFFFFFFFFFFFFFFFFF AND PUSH20 0xFFFFFFFFFFFFFFFFFFFFFFFFFFFFFFFFFFFFFFFF AND DUP2 MSTORE PUSH1 0x20 ADD SWAP1 DUP2 MSTORE PUSH1 0x20 ADD PUSH1 0x0 KECCAK256 SLOAD SWAP1 POP SWAP2 SWAP1 POP JUMP JUMPDEST PUSH1 0x5 DUP1 SLOAD PUSH2 0x8C3 SWAP1 PUSH2 0x1011 JUMP JUMPDEST DUP1 PUSH1 0x1F ADD PUSH1 0x20 DUP1 SWAP2 DIV MUL PUSH1 0x20 ADD PUSH1 0x40 MLOAD SWAP1 DUP2 ADD PUSH1 0x40 MSTORE DUP1 SWAP3 SWAP2 SWAP1 DUP2 DUP2 MSTORE PUSH1 0x20 ADD DUP3 DUP1 SLOAD PUSH2 0x8EF SWAP1 PUSH2 0x1011 JUMP JUMPDEST DUP1 ISZERO PUSH2 0x93C JUMPI DUP1 PUSH1 0x1F LT PUSH2 0x911 JUMPI PUSH2 0x100 DUP1 DUP4 SLOAD DIV MUL DUP4 MSTORE SWAP2 PUSH1 0x20 ADD SWAP2 PUSH2 0x93C JUMP JUMPDEST DUP3 ADD SWAP2 SWAP1 PUSH1 0x0 MSTORE PUSH1 0x20 PUSH1 0x0 KECCAK256 SWAP1 JUMPDEST DUP2 SLOAD DUP2 MSTORE SWAP1 PUSH1 0x1 ADD SWAP1 PUSH1 0x20 ADD DUP1 DUP4 GT PUSH2 0x91F JUMPI DUP3 SWAP1 SUB PUSH1 0x1F AND DUP3 ADD SWAP2 JUMPDEST POP POP POP POP POP DUP2 JUMP JUMPDEST CALLER DUP2 DUP1 PUSH2 0x950 DUP4 PUSH2 0x86D JUMP JUMPDEST LT ISZERO PUSH2 0x991 JUMPI PUSH1 0x40 MLOAD PUSH32 0x8C379A000000000000000000000000000000000000000000000000000000000 DUP2 MSTORE PUSH1 0x4 ADD PUSH2 0x988 SWAP1 PUSH2 0xEB6 JUMP JUMPDEST PUSH1 0x40 MLOAD DUP1 SWAP2 SUB SWAP1 REVERT JUMPDEST DUP3 PUSH1 0x2 PUSH1 0x0 DUP7 PUSH20 0xFFFFFFFFFFFFFFFFFFFFFFFFFFFFFFFFFFFFFFFF AND PUSH20 0xFFFFFFFFFFFFFFFFFFFFFFFFFFFFFFFFFFFFFFFF AND DUP2 MSTORE PUSH1 0x20 ADD SWAP1 DUP2 MSTORE PUSH1 0x20 ADD PUSH1 0x0 KECCAK256 PUSH1 0x0 DUP3 DUP3 SLOAD PUSH2 0x9E0 SWAP2 SWAP1 PUSH2 0xF6E JUMP JUMPDEST SWAP3 POP POP DUP2 SWAP1 SSTORE POP DUP3 PUSH1 0x1 PUSH1 0x0 DUP3 DUP3 SLOAD PUSH2 0x9F9 SWAP2 SWAP1 PUSH2 0xF6E JUMP JUMPDEST SWAP3 POP POP DUP2 SWAP1 SSTORE POP PUSH1 0x0 PUSH20 0xFFFFFFFFFFFFFFFFFFFFFFFFFFFFFFFFFFFFFFFF AND CALLER PUSH20 0xFFFFFFFFFFFFFFFFFFFFFFFFFFFFFFFFFFFFFFFF AND PUSH32 0xDDF252AD1BE2C89B69C2B068FC378DAA952BA7F163C4A11628F55A4DF523B3EF DUP6 PUSH1 0x40 MLOAD PUSH2 0xA5E SWAP2 SWAP1 PUSH2 0xED6 JUMP JUMPDEST PUSH1 0x40 MLOAD DUP1 SWAP2 SUB SWAP1 LOG3 POP POP POP POP JUMP JUMPDEST CALLER DUP2 DUP1 PUSH2 0xA78 DUP4 PUSH2 0x86D JUMP JUMPDEST LT ISZERO PUSH2 0xAB9 JUMPI PUSH1 0x40 MLOAD PUSH32 0x8C379A000000000000000000000000000000000000000000000000000000000 DUP2 MSTORE PUSH1 0x4 ADD PUSH2 0xAB0 SWAP1 PUSH2 0xEB6 JUMP JUMPDEST PUSH1 0x40 MLOAD DUP1 SWAP2 SUB SWAP1 REVERT JUMPDEST DUP3 PUSH1 0x2 PUSH1 0x0 CALLER PUSH20 0xFFFFFFFFFFFFFFFFFFFFFFFFFFFFFFFFFFFFFFFF AND PUSH20 0xFFFFFFFFFFFFFFFFFFFFFFFFFFFFFFFFFFFFFFFF AND DUP2 MSTORE PUSH1 0x20 ADD SWAP1 DUP2 MSTORE PUSH1 0x20 ADD PUSH1 0x0 KECCAK256 PUSH1 0x0 DUP3 DUP3 SLOAD PUSH2 0xB08 SWAP2 SWAP1 PUSH2 0xF6E JUMP JUMPDEST SWAP3 POP POP DUP2 SWAP1 SSTORE POP DUP3 PUSH1 0x2 PUSH1 0x0 DUP7 PUSH20 0xFFFFFFFFFFFFFFFFFFFFFFFFFFFFFFFFFFFFFFFF AND PUSH20 0xFFFFFFFFFFFFFFFFFFFFFFFFFFFFFFFFFFFFFFFF AND DUP2 MSTORE PUSH1 0x20 ADD SWAP1 DUP2 MSTORE PUSH1 0x20 ADD PUSH1 0x0 KECCAK256 PUSH1 0x0 DUP3 DUP3 SLOAD PUSH2 0xB5E SWAP2 SWAP1 PUSH2 0xF18 JUMP JUMPDEST SWAP3 POP POP DUP2 SWAP1 SSTORE POP DUP4 PUSH20 0xFFFFFFFFFFFFFFFFFFFFFFFFFFFFFFFFFFFFFFFF AND CALLER PUSH20 0xFFFFFFFFFFFFFFFFFFFFFFFFFFFFFFFFFFFFFFFF AND PUSH32 0xDDF252AD1BE2C89B69C2B068FC378DAA952BA7F163C4A11628F55A4DF523B3EF DUP6 PUSH1 0x40 MLOAD PUSH2 0xBC2 SWAP2 SWAP1 PUSH2 0xED6 JUMP JUMPDEST PUSH1 0x40 MLOAD DUP1 SWAP2 SUB SWAP1 LOG3 POP POP POP POP JUMP JUMPDEST PUSH1 0x0 PUSH1 0x3 PUSH1 0x0 DUP5 PUSH20 0xFFFFFFFFFFFFFFFFFFFFFFFFFFFFFFFFFFFFFFFF AND PUSH20 0xFFFFFFFFFFFFFFFFFFFFFFFFFFFFFFFFFFFFFFFF AND DUP2 MSTORE PUSH1 0x20 ADD SWAP1 DUP2 MSTORE PUSH1 0x20 ADD PUSH1 0x0 KECCAK256 PUSH1 0x0 DUP4 PUSH20 0xFFFFFFFFFFFFFFFFFFFFFFFFFFFFFFFFFFFFFFFF AND PUSH20 0xFFFFFFFFFFFFFFFFFFFFFFFFFFFFFFFFFFFFFFFF AND DUP2 MSTORE PUSH1 0x20 ADD SWAP1 DUP2 MSTORE PUSH1 0x20 ADD PUSH1 0x0 KECCAK256 SLOAD SWAP1 POP SWAP3 SWAP2 POP POP JUMP JUMPDEST PUSH1 0x0 DUP2 CALLDATALOAD SWAP1 POP PUSH2 0xC66 DUP2 PUSH2 0x110C JUMP JUMPDEST SWAP3 SWAP2 POP POP JUMP JUMPDEST PUSH1 0x0 DUP2 CALLDATALOAD SWAP1 POP PUSH2 0xC7B DUP2 PUSH2 0x1123 JUMP JUMPDEST SWAP3 SWAP2 POP POP JUMP JUMPDEST PUSH1 0x0 PUSH1 0x20 DUP3 DUP5 SUB SLT ISZERO PUSH2 0xC97 JUMPI PUSH2 0xC96 PUSH2 0x10A1 JUMP JUMPDEST JUMPDEST PUSH1 0x0 PUSH2 0xCA5 DUP5 DUP3 DUP6 ADD PUSH2 0xC57 JUMP JUMPDEST SWAP2 POP POP SWAP3 SWAP2 POP POP JUMP JUMPDEST PUSH1 0x0 DUP1 PUSH1 0x40 DUP4 DUP6 SUB SLT ISZERO PUSH2 0xCC5 JUMPI PUSH2 0xCC4 PUSH2 0x10A1 JUMP JUMPDEST JUMPDEST PUSH1 0x0 PUSH2 0xCD3 DUP6 DUP3 DUP7 ADD PUSH2 0xC57 JUMP JUMPDEST SWAP3 POP POP PUSH1 0x20 PUSH2 0xCE4 DUP6 DUP3 DUP7 ADD PUSH2 0xC57 JUMP JUMPDEST SWAP2 POP POP SWAP3 POP SWAP3 SWAP1 POP JUMP JUMPDEST PUSH1 0x0 DUP1 PUSH1 0x0 PUSH1 0x60 DUP5 DUP7 SUB SLT ISZERO PUSH2 0xD07 JUMPI PUSH2 0xD06 PUSH2 0x10A1 JUMP JUMPDEST JUMPDEST PUSH1 0x0 PUSH2 0xD15 DUP7 DUP3 DUP8 ADD PUSH2 0xC57 JUMP JUMPDEST SWAP4 POP POP PUSH1 0x20 PUSH2 0xD26 DUP7 DUP3 DUP8 ADD PUSH2 0xC57 JUMP JUMPDEST SWAP3 POP POP PUSH1 0x40 PUSH2 0xD37 DUP7 DUP3 DUP8 ADD PUSH2 0xC6C JUMP JUMPDEST SWAP2 POP POP SWAP3 POP SWAP3 POP SWAP3 JUMP JUMPDEST PUSH1 0x0 DUP1 PUSH1 0x40 DUP4 DUP6 SUB SLT ISZERO PUSH2 0xD58 JUMPI PUSH2 0xD57 PUSH2 0x10A1 JUMP JUMPDEST JUMPDEST PUSH1 0x0 PUSH2 0xD66 DUP6 DUP3 DUP7 ADD PUSH2 0xC57 JUMP JUMPDEST SWAP3 POP POP PUSH1 0x20 PUSH2 0xD77 DUP6 DUP3 DUP7 ADD PUSH2 0xC6C JUMP JUMPDEST SWAP2 POP POP SWAP3 POP SWAP3 SWAP1 POP JUMP JUMPDEST PUSH1 0x0 PUSH1 0x20 DUP3 DUP5 SUB SLT ISZERO PUSH2 0xD97 JUMPI PUSH2 0xD96 PUSH2 0x10A1 JUMP JUMPDEST JUMPDEST PUSH1 0x0 PUSH2 0xDA5 DUP5 DUP3 DUP6 ADD PUSH2 0xC6C JUMP JUMPDEST SWAP2 POP POP SWAP3 SWAP2 POP POP JUMP JUMPDEST PUSH1 0x0 PUSH2 0xDB9 DUP3 PUSH2 0xEF1 JUMP JUMPDEST PUSH2 0xDC3 DUP2 DUP6 PUSH2 0xF07 JUMP JUMPDEST SWAP4 POP PUSH2 0xDD3 DUP2 DUP6 PUSH1 0x20 DUP7 ADD PUSH2 0xFDE JUMP JUMPDEST PUSH2 0xDDC DUP2 PUSH2 0x10A6 JUMP JUMPDEST DUP5 ADD SWAP2 POP POP SWAP3 SWAP2 POP POP JUMP JUMPDEST PUSH1 0x0 PUSH2 0xDF4 PUSH1 0x7 DUP4 PUSH2 0xF07 JUMP JUMPDEST SWAP2 POP PUSH2 0xDFF DUP3 PUSH2 0x10B7 JUMP JUMPDEST PUSH1 0x20 DUP3 ADD SWAP1 POP SWAP2 SWAP1 POP JUMP JUMPDEST PUSH1 0x0 PUSH2 0xE17 PUSH1 0x11 DUP4 PUSH2 0xF07 JUMP JUMPDEST SWAP2 POP PUSH2 0xE22 DUP3 PUSH2 0x10E0 JUMP JUMPDEST PUSH1 0x20 DUP3 ADD SWAP1 POP SWAP2 SWAP1 POP JUMP JUMPDEST PUSH1 0x0 PUSH2 0xE3A PUSH1 0x0 DUP4 PUSH2 0xEFC JUMP JUMPDEST SWAP2 POP PUSH2 0xE45 DUP3 PUSH2 0x1109 JUMP JUMPDEST PUSH1 0x0 DUP3 ADD SWAP1 POP SWAP2 SWAP1 POP JUMP JUMPDEST PUSH2 0xE59 DUP2 PUSH2 0xFD4 JUMP JUMPDEST DUP3 MSTORE POP POP JUMP JUMPDEST PUSH1 0x0 PUSH2 0xE6A DUP3 PUSH2 0xE2D JUMP JUMPDEST SWAP2 POP DUP2 SWAP1 POP SWAP2 SWAP1 POP JUMP JUMPDEST PUSH1 0x0 PUSH1 0x20 DUP3 ADD SWAP1 POP DUP2 DUP2 SUB PUSH1 0x0 DUP4 ADD MSTORE PUSH2 0xE8E DUP2 DUP5 PUSH2 0xDAE JUMP JUMPDEST SWAP1 POP SWAP3 SWAP2 POP POP JUMP JUMPDEST PUSH1 0x0 PUSH1 0x20 DUP3 ADD SWAP1 POP DUP2 DUP2 SUB PUSH1 0x0 DUP4 ADD MSTORE PUSH2 0xEAF DUP2 PUSH2 0xDE7 JUMP JUMPDEST SWAP1 POP SWAP2 SWAP1 POP JUMP JUMPDEST PUSH1 0x0 PUSH1 0x20 DUP3 ADD SWAP1 POP DUP2 DUP2 SUB PUSH1 0x0 DUP4 ADD MSTORE PUSH2 0xECF DUP2 PUSH2 0xE0A JUMP JUMPDEST SWAP1 POP SWAP2 SWAP1 POP JUMP JUMPDEST PUSH1 0x0 PUSH1 0x20 DUP3 ADD SWAP1 POP PUSH2 0xEEB PUSH1 0x0 DUP4 ADD DUP5 PUSH2 0xE50 JUMP JUMPDEST SWAP3 SWAP2 POP POP JUMP JUMPDEST PUSH1 0x0 DUP2 MLOAD SWAP1 POP SWAP2 SWAP1 POP JUMP JUMPDEST PUSH1 0x0 DUP2 SWAP1 POP SWAP3 SWAP2 POP POP JUMP JUMPDEST PUSH1 0x0 DUP3 DUP3 MSTORE PUSH1 0x20 DUP3 ADD SWAP1 POP SWAP3 SWAP2 POP POP JUMP JUMPDEST PUSH1 0x0 PUSH2 0xF23 DUP3 PUSH2 0xFD4 JUMP JUMPDEST SWAP2 POP PUSH2 0xF2E DUP4 PUSH2 0xFD4 JUMP JUMPDEST SWAP3 POP DUP3 PUSH32 0xFFFFFFFFFFFFFFFFFFFFFFFFFFFFFFFFFFFFFFFFFFFFFFFFFFFFFFFFFFFFFFFF SUB DUP3 GT ISZERO PUSH2 0xF63 JUMPI PUSH2 0xF62 PUSH2 0x1043 JUMP JUMPDEST JUMPDEST DUP3 DUP3 ADD SWAP1 POP SWAP3 SWAP2 POP POP JUMP JUMPDEST PUSH1 0x0 PUSH2 0xF79 DUP3 PUSH2 0xFD4 JUMP JUMPDEST SWAP2 POP PUSH2 0xF84 DUP4 PUSH2 0xFD4 JUMP JUMPDEST SWAP3 POP DUP3 DUP3 LT ISZERO PUSH2 0xF97 JUMPI PUSH2 0xF96 PUSH2 0x1043 JUMP JUMPDEST JUMPDEST DUP3 DUP3 SUB SWAP1 POP SWAP3 SWAP2 POP POP JUMP JUMPDEST PUSH1 0x0 PUSH2 0xFAD DUP3 PUSH2 0xFB4 JUMP JUMPDEST SWAP1 POP SWAP2 SWAP1 POP JUMP JUMPDEST PUSH1 0x0 PUSH20 0xFFFFFFFFFFFFFFFFFFFFFFFFFFFFFFFFFFFFFFFF DUP3 AND SWAP1 POP SWAP2 SWAP1 POP JUMP JUMPDEST PUSH1 0x0 DUP2 SWAP1 POP SWAP2 SWAP1 POP JUMP JUMPDEST PUSH1 0x0 JUMPDEST DUP4 DUP2 LT ISZERO PUSH2 0xFFC JUMPI DUP1 DUP3 ADD MLOAD DUP2 DUP5 ADD MSTORE PUSH1 0x20 DUP2 ADD SWAP1 POP PUSH2 0xFE1 JUMP JUMPDEST DUP4 DUP2 GT ISZERO PUSH2 0x100B JUMPI PUSH1 0x0 DUP5 DUP5 ADD MSTORE JUMPDEST POP POP POP POP JUMP JUMPDEST PUSH1 0x0 PUSH1 0x2 DUP3 DIV SWAP1 POP PUSH1 0x1 DUP3 AND DUP1 PUSH2 0x1029 JUMPI PUSH1 0x7F DUP3 AND SWAP2 POP JUMPDEST PUSH1 0x20 DUP3 LT DUP2 EQ ISZERO PUSH2 0x103D JUMPI PUSH2 0x103C PUSH2 0x1072 JUMP JUMPDEST JUMPDEST POP SWAP2 SWAP1 POP JUMP JUMPDEST PUSH32 0x4E487B7100000000000000000000000000000000000000000000000000000000 PUSH1 0x0 MSTORE PUSH1 0x11 PUSH1 0x4 MSTORE PUSH1 0x24 PUSH1 0x0 REVERT JUMPDEST PUSH32 0x4E487B7100000000000000000000000000000000000000000000000000000000 PUSH1 0x0 MSTORE PUSH1 0x22 PUSH1 0x4 MSTORE PUSH1 0x24 PUSH1 0x0 REVERT JUMPDEST PUSH1 0x0 DUP1 REVERT JUMPDEST PUSH1 0x0 PUSH1 0x1F NOT PUSH1 0x1F DUP4 ADD AND SWAP1 POP SWAP2 SWAP1 POP JUMP JUMPDEST PUSH32 0x6661696C65642100000000000000000000000000000000000000000000000000 PUSH1 0x0 DUP3 ADD MSTORE POP JUMP JUMPDEST PUSH32 0x6E6F7420656E6F75676820746F6B656E73000000000000000000000000000000 PUSH1 0x0 DUP3 ADD MSTORE POP JUMP JUMPDEST POP JUMP JUMPDEST PUSH2 0x1115 DUP2 PUSH2 0xFA2 JUMP JUMPDEST DUP2 EQ PUSH2 0x1120 JUMPI PUSH1 0x0 DUP1 REVERT JUMPDEST POP JUMP JUMPDEST PUSH2 0x112C DUP2 PUSH2 0xFD4 JUMP JUMPDEST DUP2 EQ PUSH2 0x1137 JUMPI PUSH1 0x0 DUP1 REVERT JUMPDEST POP JUMP INVALID LOG2 PUSH5 0x6970667358 0x22 SLT KECCAK256 0xC4 OR PUSH14 0x4400BEB508BFEDC32A3EBDBB2F2E 0x4B 0xFC 0xC4 PUSH5 0xA57858AF83 0xDA ORIGIN 0xB2 0xAB DIV 0x2C PUSH5 0x736F6C6343 STOP ADDMOD SMOD STOP CALLER "
				},
				"gasEstimates": {
					"creation": {
						"codeDepositCost": "892800",
						"executionCost": "infinite",
						"totalCost": "infinite"
					},
					"external": {
						"": "218",
						"allowance(address,address)": "infinite",
						"approve(address,uint256)": "infinite",
						"balanceOf(address)": "2886",
						"burn(address,uint256)": "infinite",
						"decimals()": "448",
						"deposit()": "infinite",
						"mint(address,uint256)": "infinite",
						"name()": "infinite",
						"symbol()": "infinite",
						"totalSupply()": "2482",
						"transfer(address,uint256)": "infinite",
						"transferFrom(address,address,uint256)": "infinite",
						"withdraw(uint256)": "infinite"
					}
				},
				"methodIdentifiers": {
					"allowance(address,address)": "dd62ed3e",
					"approve(address,uint256)": "095ea7b3",
					"balanceOf(address)": "70a08231",
					"burn(address,uint256)": "9dc29fac",
					"decimals()": "313ce567",
					"deposit()": "d0e30db0",
					"mint(address,uint256)": "40c10f19",
					"name()": "06fdde03",
					"symbol()": "95d89b41",
					"totalSupply()": "18160ddd",
					"transfer(address,uint256)": "a9059cbb",
					"transferFrom(address,address,uint256)": "23b872dd",
					"withdraw(uint256)": "2e1a7d4d"
				}
			},
			"storageLayout": {
				"storage": [
					{
						"astId": 6,
						"contract": "erc20_implement/_ERC20.sol:Weth",
						"label": "mainOwner",
						"offset": 0,
						"slot": "0",
						"type": "t_address"
					},
					{
						"astId": 8,
						"contract": "erc20_implement/_ERC20.sol:Weth",
						"label": "totalTokens",
						"offset": 0,
						"slot": "1",
						"type": "t_uint256"
					},
					{
						"astId": 12,
						"contract": "erc20_implement/_ERC20.sol:Weth",
						"label": "balances",
						"offset": 0,
						"slot": "2",
						"type": "t_mapping(t_address,t_uint256)"
					},
					{
						"astId": 18,
						"contract": "erc20_implement/_ERC20.sol:Weth",
						"label": "allowances",
						"offset": 0,
						"slot": "3",
						"type": "t_mapping(t_address,t_mapping(t_address,t_uint256))"
					},
					{
						"astId": 21,
						"contract": "erc20_implement/_ERC20.sol:Weth",
						"label": "name",
						"offset": 0,
						"slot": "4",
						"type": "t_string_storage"
					},
					{
						"astId": 24,
						"contract": "erc20_implement/_ERC20.sol:Weth",
						"label": "symbol",
						"offset": 0,
						"slot": "5",
						"type": "t_string_storage"
					}
				],
				"types": {
					"t_address": {
						"encoding": "inplace",
						"label": "address",
						"numberOfBytes": "20"
					},
					"t_mapping(t_address,t_mapping(t_address,t_uint256))": {
						"encoding": "mapping",
						"key": "t_address",
						"label": "mapping(address => mapping(address => uint256))",
						"numberOfBytes": "32",
						"value": "t_mapping(t_address,t_uint256)"
					},
					"t_mapping(t_address,t_uint256)": {
						"encoding": "mapping",
						"key": "t_address",
						"label": "mapping(address => uint256)",
						"numberOfBytes": "32",
						"value": "t_uint256"
					},
					"t_string_storage": {
						"encoding": "bytes",
						"label": "string",
						"numberOfBytes": "32"
					},
					"t_uint256": {
						"encoding": "inplace",
						"label": "uint256",
						"numberOfBytes": "32"
					}
				}
			},
			"userdoc": {
				"kind": "user",
				"methods": {},
				"version": 1
			}
		}
	}
}